:100000000C9459010C94A0010C94A0010C944D1770
:100010000C94A0010C94A0010C94A0010C94A001DC
:100020000C94A0010C94A0010C94681E0C943A1F2F
:100030000C94FF190C94A0010C94A0010C94A00145
:100040000C94A0010C94A0010C94A0010C94A001AC
:100050000C94A0010C94741A0C94A0010C94A001AF
:100060000C94A0010C94A0010C94A0010C94A0018C
:100070000C94A0010C94A0010C94A0010C94A0017C
:100080000C94A0010C94A0010C94A0010C94A0016C
:100090000C94A0010C94A0010C94A0010C94A0015C
:1000A0000C94A0010C94A0010C94A0010704070477
:1000B000390439049C059C059C059C0586041B0598
:1000C0002C052C058C059C059C05950530063006F5
:1000D000420642063906420642064206300630060D
:1000E0003E06420642063E06A71FCE1FC620CE1F72
:1000F000C6201A203D20C6209420A32023002400DF
:100100002500260027002D002E001C0018000C00E2
:10011000120013002F0030000B000D000E000F0026
:10012000330034003500110010003600370038006D
:100130003100E5002C004A002A0046004C00015125
:10014000E40001002200210020001F001E00290001
:1001500001001700150008001A0014002B00010010
:100160000A000900070016000400E700010005006E
:10017000190006001B001D00E100010028004D00D1
:100180000151E200E300E0003F0040004100420076
:10019000430044004500010001000100010001008E
:1001A00001004A005000510052004F0001000100C0
:1001B0004D000100010001000100010001004B00A1
:1001C0000100010001000100010001004E000100DA
:1001D0003E003D003C003B003A00010001000100F0
:1001E00001000100005C0100010001000100CA5C87
:1001F000C85CC65CC35C010001000100CB5CC95C4B
:10020000C75CC45C010001000100010001000100A5
:10021000010001001603720075006E006E0065009B
:100220007200330036003800300000000C034F002D
:100230006D006B0062006400000004030904090201
:100240002200010100A0FA090400000103010100DD
:100250000921110100012240000705810308000A5D
:100260001201000200000008EDFE0000050001027E
:10027000000105010906A101050719E029E715009C
:100280002501950875018102950175088101050711
:10029000190029FF150026FF009506750881000545
:1002A00008190129059505750191029501750391BC
:1002B00001C011241FBECFEFDAE0DEBFCDBF04B610
:1002C00003FE27C08091370290913802A091390235
:1002D000B0913A028730904BA740B04BD1F41092C6
:1002E0003702109238021092390210923A0214BE6C
:1002F00084B7877F84BF0FB6F894A895809160007B
:10030000886180936000109260000FBEE0E0F8E327
:10031000099511E0A0E0B1E0E8EDF2E402C005903B
:100320000D92A034B107D9F722E0A0E4B1E001C0FA
:100330001D92A733B207E1F70E945F140C946A2163
:100340000C94000081E0089581E008950C94A401CC
:1003500008950C94A8011F93CF93DF9300D000D091
:100360001F92CDB7DEB749835A836B833091420128
:1003700089819A81311114C0662359F0222349F0F2
:100380000E94D407182F682F89819A810E947D07C7
:1003900003C00E94A807182F69817A81812F04C0A9
:1003A0000E94D40769817A810F900F900F900F906F
:1003B0000F90DF91CF911F910C94510EFC01262FCD
:1003C000408151816281738184810C94AB0181E011
:1003D0000895CF93DF93EC0160E00E94DE01BE013F
:1003E000DF91CF910C94A9010E9448100E946502F0
:1003F0000C9482100C947E1008950E941E060E9498
:10040000FC012FEF84E39CE0215080409040E1F715
:1004100000C000000C949A1A0F931F93CF93DF93A0
:100420008C0161E00E94DE01EC01B8010E94A6018E
:100430008823F1F1B801CE010E94F5148823C1F19F
:10044000B801CE010E944715882391F1B801CE0171
:100450000E947916882361F1F8018281882309F1CD
:10046000CB358DE5D807C1F050F4C115FCE5DF07A9
:1004700081F0CF3DDC45A9F40E94690D19C0CC354F
:10048000EDE5DE0761F0CD35DD4559F40E94F30B53
:1004900008C00E94FD010CC00E94FC0B02C00E941B
:1004A000FF0BC801DF91CF911F910F910C94A20116
:1004B00080E0DF91CF911F910F91089508950C94E2
:1004C0005E0281E008950C9461020895CF93C82FD5
:1004D0000E945F028C2F0E946302CF910895CF93F8
:1004E000DF93CDB7DEB72B970FB6F894DEBF0FBE04
:1004F000CDBF4F83588769877A878B8761110E94A8
:10050000220C9E012F5F3F4F86E0F90111928A95E0
:10051000E9F785E0FE013796D90101900D928A95A1
:10052000E1F789819A814C815D81452B31F09F3FB4
:1005300031F491E08F3F19F403C091E001C090E0E5
:1005400090FF09C049815A816B817C818D819E8198
:100550000E94220B05C0C9010E94E7018111F2CF60
:100560002B960FB6F894DEBF0FBECDBFDF91CF91B3
:100570000895FC01808191810E9416080895CF930F
:10058000882309F482C0C82F8238C1F40E94D11890
:1005900081FD7BC069E380910001909101010E947F
:1005A0005D190E94540C2FEF81EE94E021508040A1
:1005B0009040E1F700C0000069E319C08338F1F40E
:1005C0000E94D11880FD61C063E580910001909187
:1005D00001010E945D190E94540C2FEF81EE94E0FE
:1005E000215080409040E1F700C0000063E5809119
:1005F0000001909101010E945F1944C08438C1F448
:100600000E94D11882FD41C067E480910001909161
:1006100001010E945D190E94540C2FEF81EE94E0BD
:10062000215080409040E1F700C0000067E4DFCF38
:100630008CEF8C0F813AD0F46C2F80910001909157
:1006400001010E942719882349F06C2F8091000135
:10065000909101010E945F190E94540C6C2F8091AF
:100660000001909101010E945D190CC080E28C0F85
:10067000883058F4C77081E001C0880FCA95EAF746
:100680000E94050CCF910C94540CCF9108958823AF
:1006900009F45BC0682F823879F40E94D11881FF79
:1006A00054C069E380910001909101010E945D199D
:1006B0000E94540C69E310C08338B1F40E94D11831
:1006C00080FF43C063E580910001909101010E9489
:1006D0005D190E94540C63E5809100019091010125
:1006E0000E945F190C94540C843879F40E94D1183C
:1006F00082FF2BC067E480910001909101010E946C
:100700005D190E94540C67E4E7CF8CEF860F813AA5
:1007100018F380E2860F883048F4677081E001C0EA
:10072000880F6A95EAF70E940B0CDCCF8BE5860FE9
:10073000833020F480E090E00C94EF18685A673121
:1007400020F480E090E00C94051908951F93CF9356
:10075000DF93182FEB010E94BF02209741F08FE931
:100760009FE00197F1F700C000002197F6CF812F9D
:10077000DF91CF911F910C944703893319F060E00A
:1007800070E002C060E570E00C94A603882321F0BD
:100790000E94050C0C94540C0895882321F00E94AB
:1007A0000B0C0C94540C0895CF92DF92EF92FF92B1
:1007B0000F931F93CF93DF937C01062FC72FFC016C
:1007C0001281D581D295DF700E94DA0B882399F0CF
:1007D000112389F08C2F807F803421F080E2800FFC
:1007E000883048F082E00E94A40C0E94DA0B91E06D
:1007F000D82ED92601C0D12CCC2EC2948FE0C8228D
:100800008C2D90E0FC01EA5AFF4F0C940C218C2FA8
:10081000807FCF70882311F0C295C07F112399F09B
:10082000CC2309F464C180E2800F883010F00111FC
:1008300004C08C2F0E94050C03C08C2F0E94150C45
:100840000E94540C54C1802F0E944703CC2309F40A
:1008500073C180E2800F883010F0011104C08C2F2A
:100860000E940B0C03C08C2F0E941B0C0E94540C86
:1008700063C18C2F807FCF70803211F0C295C07F12
:10088000002319F00130C9F022C0112371F0DD23DB
:1008900041F0D13031F40E94350C8C2B0E943D0C7C
:1008A0004BC10E94350C8C2B1DC0DD2319F0D130BB
:1008B00009F442C10E944A0C25C0112321F0D63010
:1008C00008F03AC10EC0D53008F036C11BC0112364
:1008D00061F0DD2331F0F701858180FF08C18F7061
:1008E00085838C2F0E94C60327C1DD2359F009336D
:1008F00009F00EC1FFEF27EE83E0F1502040804069
:10090000E1F704C18C2F0E94CD0316C18C2F837098
:1009100009F045C0111114C1402F4295469547700A
:10092000440F440F602F6F70862F90E0A0E0B0E07E
:10093000042E04C0880F991FAA1FBB1F0A94D2F768
:1009400004FF10C00FE010E020E030E004C0000F12
:10095000111F221F331F4A95D2F70095109520953D
:10096000309503C000E010E09801C695C695C370AD
:10097000BC01CD01602B712B822B932BC23049F02F
:1009800058F4C13019F00E949306DAC00E94810623
:10099000D7C00E94A506D4C00E947F06D1C01123F3
:1009A00019F08C2F817001C08695882309F4C8C086
:1009B000402F429546954770440F440F602F6F704B
:1009C000862F90E0A0E0B0E0042E04C0880F991FAD
:1009D000AA1FBB1F0A94D2F704FF10C00FE010E05B
:1009E00020E030E004C0000F111F221F331F4A9582
:1009F000D2F7009510952095309503C000E010E0E7
:100A00009801C695C695C370BC01CD01602B712BB2
:100A1000822B932BC23049F058F4C13019F00E9458
:100A200058078EC00E9446078BC00E946A0788C084
:100A30000E94B90685C0CF70112339F08C2F0E9417
:100A4000DF06802F0E94C6037BC0802F0E94CD034B
:100A50008C2F0E94000774C0023F01F128F4003F70
:100A600041F0013FA1F03FC0033FF9F0043F39F1ED
:100A70003AC0112341F0D53008F05EC08C2F8F7141
:100A80000E94250759C0D63008F056C0F7CF112371
:100A900039F08C2F8F710E94DF064EC01123C9F3ED
:100AA0008C2F8F710E94000747C0112329F08C2FD3
:100AB0008F710E94CA0640C00E94C5063DC0112326
:100AC00049F0CF718C2F0E94DF0663E08C2F0E94CB
:100AD000890C32C081E00E94A40CD23068F182E01F
:100AE0000E94A40C29C0112331F0DD2391F2802F44
:100AF0000E94BF0221C0DD2399F2093349F49FEF20
:100B0000E7EEF3E09150E040F040E1F700C0000074
:100B1000802F0E94470310C04C2F4F70602FC701D9
:100B20000E944D0E0E9444080FC04C2F4F70602F42
:100B3000C7010E94500E08C088EF8C0D843020F44D
:100B40000E94D1180E946602DD20C9F00E94D60BD7
:100B500080FD15C0F70112820E94D00B0E94DF06B3
:100B6000C7010E94E0050E94D00BDF91CF911F9139
:100B70000F91FF90EF90DF90CF900C940007DF91E2
:100B8000CF911F910F91FF90EF90DF90CF9008953C
:100B90000F931F93CF93DF93EC01688179818A8152
:100BA0000E9421088C010E947C070E946D06B801FA
:100BB000CE010E94D403DF91CF911F910F91089530
:100BC000CF93DF93EC01988189812B813C81232B8A
:100BD00031F08F3F31F481E09F3F19F403C081E091
:100BE00001C080E080FD19C0CE010E940C0281117D
:100BF0000CC00E94DA0B882381F08A81882369F077
:100C000082E0DF91CF910C94A40CCE010E94C80524
:100C1000CE01DF91CF910C94E901DF91CF9108953E
:100C20000E94220C0E94320C0C94540C8091000102
:100C3000909101010E9461190C9410060E94120CFF
:100C40000C941606E92FE295EF704E2F50E0FA0152
:100C50003297EE30F105B0F4EA59FF4F0C940C21B5
:100C6000803F91F018F4883E68F40EC0843F51F440
:100C70000BC0883E48F0813F29F406C093FB8827CB
:100C800080F9089580E0089581E00895FC01808155
:100C900091810E9416080E9422060895CF93DF9347
:100CA00000D000D01F92CDB7DEB70F900F900F90FD
:100CB0000F900F90DF91CF910895CF93DF9300D0E5
:100CC00000D000D0CDB7DEB726960FB6F894DEBFC1
:100CD0000FBECDBFDF91CF910895089508950C9474
:100CE0006E060C946F060E947106609374017093F7
:100CF000750180937601909377010C9410060C9403
:100D000073060F931F930091740110917501209148
:100D1000760130917701602B712B822B932B1F91E1
:100D20000F910C9473060F931F930091740110910F
:100D30007501209176013091770160237123822320
:100D400093231F910F910C9473060F931F9300919F
:100D5000740110917501209176013091770160271F
:100D60007127822793271F910F910C9473060C947F
:100D70006E060E94B70660937001709371018093B4
:100D80007201909373010C94100660E070E0CB0147
:100D90000C94B9060F931F9341E050E060E070E0BF
:100DA0008A019B0104C0000F111F221F331F8A9567
:100DB000D2F7C901B8011F910F910C94B9060F9396
:100DC0001F9341E050E060E070E004C0440F551F05
:100DD000661F771F8A95D2F78091700190917101FB
:100DE000A0917201B09173018A019B01082B192B0C
:100DF0002A2B3B2BC901B8011F910F910C94B90606
:100E00000F931F9341E050E060E070E004C0440F96
:100E1000551F661F771F8A95D2F7409550956095AC
:100E200070958091700190917101A0917201B091C3
:100E300073018A019B01082319232A233B23C9013B
:100E4000B8011F910F910C94B9060F931F9341E0C5
:100E500050E060E070E004C0440F551F661F771F2C
:100E60008A95D2F78091700190917101A0917201E1
:100E7000B09173018A019B01082719272A273B2774
:100E8000C901B8011F910F910C94B9060F931F93DC
:100E900000917001109171012091720130917301E4
:100EA000602B712B822B932B1F910F910C94B90601
:100EB0000F931F93009170011091710120917201A5
:100EC0003091730160237123822393231F910F912B
:100ED0000C94B9060F931F9300917001109171014A
:100EE0002091720130917301602771278227932727
:100EF0001F910F910C94B906089527E0929F800DE1
:100F00001124E82FE695E695E695877051E001C03B
:100F1000550F8A95EAF785E0E89FF0011124ED5B13
:100F2000FE4F20E030E070E04081CB01022E02C095
:100F3000969587950A94E2F7817081958427852399
:100F4000842781932F5F3F4F2530310569F708953E
:100F500027E0929F800D1124682F6695669566950F
:100F6000982F977085E0689FB001112440E050E011
:100F700080E0FB01E40FF51FED5BFE4F208130E0C8
:100F8000092E02C0369527950A94E2F7217033277F
:100F9000042E01C0220F0A94EAF7822B4F5F5F4FA5
:100FA0004530510531F70895BF92CF92DF92EF920D
:100FB000FF920F931F93CF93DF938C01C09070012A
:100FC000D0907101E0907201F090730180917401F2
:100FD00090917501A0917601B0917701C82AD92A24
:100FE000EA2AFB2ACFE1D0E0D701C6010C2E04C0CB
:100FF000B695A795979587950A94D2F780FD04C07A
:10100000219790F7B12C07C0BC2EB8018C2F0E94FD
:10101000690F0197A9F38B2DDF91CF911F910F914C
:10102000FF90EF90DF90CF90BF900895CF93DF9324
:10103000EC010E94D407BE010E94690FDF91CF919D
:1010400008951F93CF93DF93EB0190914201992371
:1010500021F0CB010E94160813C0882349F0CB0170
:101060000E94D407182F682FCE010E947D0704C06C
:10107000CB010E94A807182FBE01812F0E94690F83
:10108000DF91CF911F910895EF92FF920F931F93DD
:10109000CF93DF938C01892B09F46CC0F12CEE24E3
:1010A000E394E8012196F8018491843740F4843078
:1010B00008F051C0813081F0823019F15BC0853772
:1010C00009F444C0A8F19CE7980F903708F052C08B
:1010D0008F770E94470341C00E5F1F4FFE0184912E
:1010E00090E2980F983050F48770FE2D01C0FF0FEA
:1010F0008A95EAF78F2F0E94250C14C00E94BF0228
:101100002DC00E5F1F4FFE01849190E2980F983022
:1011100060F48770FE2D01C0FF0F8A95EAF78F2FCC
:101120000E942B0C0E94540C19C00E94470316C049
:101130000E5F1F4FFE01C491CC2381F08FE99FE029
:101140000197F1F700C00000C150F6CF0E5F1F4FAE
:10115000FE01F49003C00E94BF028E018F2D8823F0
:1011600009F49FCFEFE9FFE03197F1F700C00000ED
:101170008150F5CFDF91CF911F910F91FF90EF90AC
:1011800008951F93CF93DF93C091780116E080916B
:101190007901C81799F0D0E01C9FF0011D9FF00D58
:1011A0001124E658FE4F4081518162817381848110
:1011B00095810E945D062196C770E9CFDF91CF919E
:1011C0001F9108954091AA015091AB016091AC012B
:1011D0007091AD018091AE019091AF010C945D06CC
:1011E0000F931F93CF93DF938091AF0182958F7000
:1011F00009F05DC08091AC01882309F458C080914A
:101200007801109179016091AA017091AB01C091B0
:10121000AD01D091AE0191E06F3F09F090E0292F30
:1012200006E0811709F443C0209721F07F3F21F0A9
:1012300030E003C031E001C0322F90E030FD34C017
:10124000089FF001099FF00D1124DF01A658BE4F41
:1012500011963C911197371327C03C91361324C047
:1012600012963C91129731111FC013964D915C91CB
:1012700014974C1B5D0B48375105B0F48091AF01BA
:101280008F7080618093AF01E158FE4F80818F7035
:10129000806180838AEA91E00E94E005DF91CF912E
:1012A0001F910F910C94C10801968770BACFDF91FE
:1012B000CF911F910F9108959F92AF92BF92CF92BD
:1012C000DF92EF92FF920F931F93CF93DF93CDB7EF
:1012D000DEB761970FB6F894DEBF0FBECDBF8C01AD
:1012E00085E0F801DE011D9601900D928A95E1F7E7
:1012F000F801E2809091AA016091AB012091AD01CB
:101300003091AE012115310531F06F3F31F481E0AC
:101310009F3F19F403C081E001C080E0F82FF17015
:101320009F2E80FD3FC1F80140815181A380B48090
:101330008AEAC82E81E0D82EF090AC01F501E21BBC
:10134000F30BFF2009F4D9C08091AF01E837F10514
:1013500008F095C0282F207F09F052C0561313C003
:10136000491311C0FE2CE1100EC08F708061809374
:10137000AF010E94E208C6010E94E0058091AF0122
:10138000F80185834CC1AB2831F05F3F31F481E037
:101390004F3F19F403C081E001C080E080FD03C02D
:1013A00081E08E2502C080E090E0F82FF170FF2EE2
:1013B00080FF1CC0809178012091790136E082176E
:1013C00009F40BC190E0389FF001399FF00D112412
:1013D000E658FE4F6181561306C06081461303C074
:1013E0006281E61203C001968770E9CFFE2CEE20E1
:1013F00009F415C18091AF0181608093AF0154C0A1
:10140000561306C0491304C0E11002C0F80199C088
:10141000C8010E944606882361F1EE2051F1209117
:10142000AF01822F82958F7090E0029774F08091C7
:10143000AA019091AB0198878F831986BB86AA86F3
:101440002C87CE0107960E94E00586E0F801AAEA03
:10145000B1E001900D928A95E1F70E94F0080E9498
:10146000E2080AC0561711F1C8010E944606811110
:101470002CC0C8010E94E005FF24F394D0C0282F9F
:10148000207F81F77A2DB98AA88A6E2D89890E94DA
:101490004E068AEA91E00E94E00586E0F60111928C
:1014A0008A95E9F70E94E208F12CB9C04913DCCF14
:1014B000E110DACFF8018583C8010E94E00586E0DB
:1014C000F60111928A95E9F7AAC0EE2091F22091D7
:1014D000AF01822F82958F7090E002970CF4B5CF08
:1014E0008091AA019091AB019A8389831B82BD826E
:1014F000AC822E83CE010196A6CFE837F10508F025
:1015000044C0FE2CEE2009F4B4CF561330C049136A
:101510002EC02091AF0120FD21C0822F82958F70B7
:10152000482F50E041155105C9F0F80125834F308F
:10153000510541F08F5F982F9295907F822F8F7089
:10154000892B8583C8010E94E00586E0F801AAEA9C
:10155000B1E001900D928A95E1F73CC086E0F80178
:10156000AAEAB1E001900D928A95E1F758C0C8014E
:101570000E944606811169CF8091AF0181608093FE
:10158000AF01C8010E94E0054AC07A2DB98AA88A35
:101590006E2D89890E944E0686E0F60111928A9589
:1015A000E9F718C0EE2009F464CFC8010E9446068E
:1015B000F82E882309F45DCF86E0F801AAEAB1E0AD
:1015C00001900D928A95E1F78AEA91E00E94B902B2
:1015D0000E94F0080E94E20822C04D875E878D8538
:1015E0009E850E941608292F22952F70223028F4FC
:1015F0009F7039F0811105C00BC0243028F49F7012
:1016000049F4805E883020F0C8010E94E0059F2CDC
:10161000F92C05C0F8019581907F99F7F9CF8F2DAE
:1016200061960FB6F894DEBF0FBECDBFDF91CF91AC
:101630001F910F91FF90EF90DF90CF90BF90AF90F0
:101640009F9008951F93CF93DF93CDB7DEB72C976C
:101650000FB6F894DEBF0FBECDBF4F8358876987A2
:101660007A878B879C87CE0107960E945C09882326
:10167000D1F09F8188852A853B85232B31F08F3FD0
:1016800031F481E09F3F19F403C081E001C080E0A4
:1016900080FD47C04F81588569857A858B859C85FB
:1016A0000E945D063EC086E0FE013796DE0111967F
:1016B00001900D928A95E1F7FF81E8856A857B8527
:1016C0006115710531F0EF3F31F481E0FF3F19F40E
:1016D00003C081E001C080E080FD23C0209179013A
:1016E00030E0C9010196877099274091780150E058
:1016F00084179507F1F1F983EA837D836C8396E083
:10170000929FD001939FB00D1124A658BE4FFE01A9
:10171000319601900D929A95E1F7809379010E949C
:10172000C10816E08091780190917901891771F1D3
:10173000189FC001112486589E4F0E945C0988237F
:1017400029F1E09178011E9FF0011124E658FE4F27
:101750004081518162817381848195810E945D06FF
:101760008091780190E001968770992780937801A5
:10177000D9CF0E941E061092790110927801EAEAF0
:10178000F1E086E0DF011D928A95E9F72C960FB60D
:10179000F894DEBF0FBECDBFDF91CF911F910895AA
:1017A0008091B00185958595859508958091B001CA
:1017B000877008959091B001977081E009F480E0FE
:1017C000089590910A0292FB222720F9281751F0E0
:1017D00080FB92F990930A028091090290910A028B
:1017E0000C94E50C089580910A0282FB882780F909
:1017F00091E089270C94E10B81E00C94E10B80E0EF
:101800000C94E10B8091BC0108959091BC01892B4F
:101810008093BC01089580959091BC0189238093A9
:10182000BC0108951092BC0108959091BB01892BD1
:101830008093BB01089580959091BB01892380938B
:10184000BB0108951092BB0108959091BA01892BB4
:101850008093BA01089580959091BA01892380936D
:10186000BA0108951092BA0108958091B1010895C6
:1018700008950C94380C0C94390C90910A0292FD46
:1018800008C09091B101981721F08093B1010C9498
:101890003B0C08958091B101882329F01092B10189
:1018A00080E00C943B0C0895E0910001F09101015F
:1018B0008091BC018083E0910001F0910101908151
:1018C0008091BB01892B8083E0910001F09101019F
:1018D00090818091BA01892B80838091B101882306
:1018E00081F0E0910001F09101019081892B8083CA
:1018F00080910001909101010E941B1981110E94A9
:101900004A0C80910001909101010C94E4180C9410
:10191000380C90910A0292FD10C098E0899F9001C6
:101920001124262B2093B0010E94DF068091B00184
:101930008595859585950C94870C0C94DF061092FF
:10194000B00180E00C94870C2091B0018095822337
:101950008093B001982F977041F430E0482F082E03
:10196000000C550B2417350721F490910A0292FFC1
:1019700007C08595859585950E9400070C949F0C5E
:10198000089580E090E00E94302121E0893E9E4F42
:1019900009F020E0822F089582E090E00C94282145
:1019A00083E090E00C942821CF9384E090E00E94A3
:1019B0002821C82F82E290E00E9428212C2F30E0BD
:1019C000A901582BCA01CF910895CF93C92F682F31
:1019D00084E090E00E9436216C2F82E290E0CF916B
:1019E0000C943621AB01BC018FE090E00C944821AF
:1019F000AB01BC0183E190E00C94482160E070E011
:101A0000CB010C94F80C60E070E0CB010E94F20C6A
:101A10000C94FE0C69EE7EEF80E090E00E94542171
:101A200060E082E090E00E94362160E083E090E098
:101A30000E94362110927401109275011092760165
:101A40001092770160E084E090E00E94362160E02F
:101A500082E290E00E94362160E085E090E00E9402
:101A6000362160E086E090E00E9436216FEF87E04B
:101A700090E00E94362140E050E0BA0188E090E01A
:101A80000E94482160E08DE090E00E94362140E015
:101A900050E0BA0188E190E00E94482160E087E1CF
:101AA00090E00E94362140E050E0BA018CE190E0E5
:101AB0000E94482160E070E080E290E00E945421A2
:101AC00040E050E0BA0188E190E00E9448210C9487
:101AD000030D0C940A0D682F8EE090E00C943621D3
:101AE0000E943D1A6093CC017093CD018093CE018A
:101AF0009093CF016093C8017093C9018093CA018C
:101B00009093CB01089585B7806885BF85B78068BD
:101B100085BF08950C942D1208950C948C0D0C948F
:101B20008C0D0C948F0D0C948C0D0C94930D0C94C7
:101B30008C0D0E94830D85E490E10E94AB1A0E94F7
:101B4000970D0C94950D0E948D0D0C948C0D0E9498
:101B5000281A0E9468190E9428110E946A140C9485
:101B6000910D9F92AF92BF92CF92DF92EF92FF9230
:101B70000F931F93CF93DF93CDB7DEB72A970FB69E
:101B8000F894DEBF0FBECDBF0E94A21181110E944A
:101B9000700D8EEBA82E81E0B82E00E010E0902EA4
:101BA000802F0E946C10D82EF501C1905F01C826CD
:101BB000B1F40F5F1F4F0A30110589F78FEF89834A
:101BC0008A831B820E94311A8160782F9D838C83C7
:101BD00049815A816B818D810E946F022FC0809153
:101BE000D00181FD0E947210E12CFF24F3948C2D12
:101BF0008F21F1F00E948A0D882399F0EE829F8256
:101C0000DF2081E009F480E088870E94311A81603A
:101C1000782F9A8789874E815F8168858A850E949F
:101C20006F02F801E254FE4F8081F826F08206C070
:101C3000E394FF0CF7E0EF12DACFBBCF0E94D1188C
:101C40009091BD018917B9F00E94D1188093BD0110
:101C50002A960FB6F894DEBF0FBECDBFDF91CF91AD
:101C60001F910F91FF90EF90DF90CF90BF90AF90BA
:101C70009F900C9466022A960FB6F894DEBF0FBEB2
:101C8000CDBFDF91CF911F910F91FF90EF90DF902B
:101C9000CF90BF90AF909F90089580E090E008951E
:101CA000089526E4829FC0011124FC0127E0729F61
:101CB000E00DF11D1124E60FF11DEE0FFF1FE450A2
:101CC000FF4F859194910895880F991FFC01EC5E58
:101CD000FD4F859194910895CF93DF930E946E0FED
:101CE000EC01811521E5920798F5811540E59407EF
:101CF00008F085C0811550E29507F0F4C11581E028
:101D0000D80708F0E2C0C03ED10588F4C03CD10538
:101D100008F065C0C130D10509F45EC008F4D2C036
:101D2000CE010497813A910508F4CFC0CBC0C83EDC
:101D3000D10508F4CAC0C6C0811520E4920708F096
:101D40005BC0811540E3940708F04FC09F704AC004
:101D5000811555E59507A0F4C11584E5D80708F06D
:101D600095C0C11523E5D20708F07BC0C11542E537
:101D7000D40708F061C09C2F8827816F906AA6C0A5
:101D8000811559E5950798F4C11588E5D80708F03D
:101D900082C0C11526E5D20708F094C08C2F0E949E
:101DA00002108F7190E0982F882790628FC0811564
:101DB0004AE5940708F474C090568115904208F0E3
:101DC00081C08D2F8F710E9402109E0133273062D7
:101DD0008F71A901582B74C081E090E077C0CE01CB
:101DE000805C91090E94640E71C09927D3FF02C0E4
:101DF000986C6CC0906C6AC09F70906A67C0F4E089
:101E000096958795FA95E1F7282F23703C2F33702C
:101E100081E090E002C0880F991F3A95E2F79C6834
:101E2000922B2C2F2F702695269540E2249F90010F
:101E30001124822B932B4AC09E012370332781E00B
:101E400090E002C0880F991F2A95E2F72C2F269563
:101E5000269550E2259F90011124822B932B9C689C
:101E600035C09E012370332781E090E002C0880FC7
:101E7000991F2A95E2F72C2F2695269540E2249F5C
:101E800090011124822B932B9A6820C09C2F8827C5
:101E9000846F906A1BC09C2F8827806F906A16C041
:101EA0008F700E9402109E0194E0369527959A95B6
:101EB000E1F72F7030E0322F22273069A901482B3B
:101EC000CA0104C080E090E001C0CE01DF91CF9153
:101ED00008950E94510E0E946C0E0895823891055B
:101EE00069F1B0F48133910509F46DC048F4893289
:101EF000910509F463C08A32910509F469C0089517
:101F00008533910509F455C089339105B9F00895D9
:101F1000833E910569F138F4803E9105B1F0823E2F
:101F2000910509F10895863E9105A9F1873E910535
:101F3000B9F1843E910509F064C023C020910902E3
:101F400020FD4FC021FD4DC008958091090280FD04
:101F500044C080910A0280FF44C08091090284FD40
:101F600042C083EE4DC08091090282FF38C0F5CF98
:101F70008091090282FD33C080910A0280FD31C048
:101F8000ECCF80910A0281FF32C08091090284FD6A
:101F90002AC087EE35C08091090283FF26C0F5CFA5
:101FA0008091090283FD21C080910A0281FD1FC03A
:101FB000ECCF8091090285FD1CC01DC080910902F3
:101FC00085FD19C016C08091090286FD16C017C094
:101FD0008091090286FD13C010C089E311C082EE12
:101FE0000FC080EE0DC080E00BC086EE09C084EE0D
:101FF00007C089E205C085E303C08AE201C081E32E
:1020000090E008959091090292FF0DC0282F287149
:10201000283019F4877F846006C0282F247124306B
:1020200011F48B7F886093FF0DC0282F2871283111
:1020300019F4877E846106C0282F2471243111F49D
:102040008B7E886120910A0220FF0DC0382F3871E5
:10205000383019F4877F816006C0382F31713130F4
:1020600011F48E7F886021FF0DC0282F2871283140
:1020700019F4877E816106C0282F2171213111F466
:102080008E7E886194FD877E089580E0089508958E
:102090000E94C10C811102C00E94690D0E94CC0CEB
:1020A0008093D0010E94D40C90930A02809309027D
:1020B0000E9447100E94D00C682F70E080E090E0F2
:1020C0000E947F0660917001709171018091720190
:1020D000909173010C94B706E82FF0E0EB5EFD4F92
:1020E00080810895089580EA8A95F1F7089500C0E7
:1020F00008950C94731008950C947B100C947C102C
:102100000C947B100C948010F894E82FE295EF70FB
:10211000F0E031A1282F2F7081E090E001C0880FFE
:102120002A95EAF7982F9095932391A392A1892B52
:1021300082A37894089508950C949B100F931F9395
:10214000CF93DF93C3E3D1E089918F3F11F00E94D9
:10215000841081E0C833D807B9F7CCE2D1E003E3BB
:1021600011E089918F3F11F00E9484100C171D0718
:10217000C1F7DF91CF911F910F910895CF92DF9218
:10218000EF92FF920F931F93CF93DF938C01C62F93
:10219000D0E0CE018D5C9E4F7C01FC0190819F3F81
:1021A00009F44DC0D62EF894E92FE295EF70F0E0D7
:1021B00081A19F7021E030E001C0220F9A95EAF7DB
:1021C000822B81A382A12095282322A378940E94A8
:1021D0007710ECE2F1E020E030E0C12C51E04191D9
:1021E0004F3FB1F0A42FA295AF70B0E090968C91C4
:1021F00090E04F7002C0959587954A95E2F780FD73
:1022000007C0852F022E01C0880F0A94EAF701C08B
:1022100080E0C82A2F5F3F4F2730310501F7F701D3
:1022200080818F3F11F00E94841061E0C11001C0D5
:1022300060E08D2D0E947910C00FD11FC882DF9100
:10224000CF911F910F91FF90EF90DF90CF90089565
:102250000E9447128091020180910201811102C007
:1022600095E001C090E09093200285E0891B809367
:102270001F020E949E10EBE0F2E0A5E1B2E0119295
:102280001D9282E0E531F807D1F785E00E94F61152
:102290000E94F4010C9451120F931F93CF93DF937C
:1022A00000D000D01F92CDB7DEB70E942D126091F2
:1022B0002002882379F18E010F5F1F4F85E0F8011E
:1022C00011928A95E9F7862F90E0B8018B5E9D4FB9
:1022D0000E945F12E0911F029E012A5F3F4FF0E0D3
:1022E000EB5EFD4FD801882361F010E08D91908165
:1022F000981711F0808311E03196A217B307B1F758
:1023000006C011921D92A217B307D9F711E00E94DF
:10231000FA010DC070E06B5E7D4F80911F0290E06E
:102320008B5E9D4F0E94EF120E949C1010E0812F47
:102330000F900F900F900F900F90DF91CF911F9102
:102340000F910895EF92FF920F931F93CF93DF9316
:10235000CDB7DEB72A970FB6F894DEBF0FBECDBF5C
:102360008E010F5F1F4F8AE0F80111928A95E9F7FD
:10237000F12C6F2DC8010E94BE10F394F5E0FF12FE
:10238000F8CF4AE050E0B8018BE092E00E941221C1
:102390007C0121E0892B09F420E0E114F10441F0F3
:1023A0008AE0F801ABE0B2E001900D928A95E1F786
:1023B0006091200270E06B5E7D4F45E08BE092E023
:1023C0000E94F711EF2819F40E944C1102C081E01D
:1023D00090E02A960FB6F894DEBF0FBECDBFDF9116
:1023E000CF911F910F91FF90EF9008950895FF9264
:1023F0000F931F93CF93DF938C01F62ED72FC42F0B
:10240000222349F081E08093D3010E94311A9093F6
:10241000D2018093D1018091D3018823C1F08091B2
:10242000D1019091D2010E94491A059780F0EF2DB9
:10243000FD2FD8014C2F50E0CD01801B910B84174C
:1024400095071CF48D918193F7CF1092D301DF9102
:10245000CF911F910F91FF9008958091D601811126
:102460000DC00E94FF20811102C082E001C081E006
:102470008093D601823011F40E94FA2081E090917D
:10248000D601913009F080E008950C942D120E943D
:102490004512809302010E942D1281110C94971213
:1024A00008950E942D12811102C00C949912089572
:1024B00081E09091D7019A3008F080E008950F9361
:1024C0001F93CF93DF93EC018B018091D7018A306A
:1024D00038F4B801CE010E94ED1281111DC00AC06E
:1024E0008091D4019091D5010E94491A843F914076
:1024F00080F715C08091D7018F3F19F08F5F8093CF
:10250000D7018091D7018A3060F00E94311A9093F0
:10251000D5018093D40103C01092D70102C080E09E
:1025200001C081E0DF91CF911F910F9108950C942C
:1025300007170C940A17EF92FF920F931F93CF93F4
:10254000DF937901C82F880FDD0B41155105A9F0E4
:102550008AE08C9FF0018D9FF00D1124ED5FFE4FFE
:102560008381948188529E4F228130E04217530725
:1025700008F49A01A9010E941F21CE010E9414189B
:10258000892B09F50115110501F18AE08C9FF001F5
:102590008D9FF00D1124ED5FFE4F458150E0041733
:1025A000150708F4A8018AE08C9FF0018D9FF00DBB
:1025B0001124ED5FFE4F6681778168527E4FC7011F
:1025C0000E941F2102C080E001C081E0DF91CF9115
:1025D0001F910F91FF90EF9008950C9409140C94A3
:1025E00025140F931F93CF93DF9300D000D0CDB766
:1025F000DEB76091EF017091F0018091F10190914F
:10260000F2010E94581A643671058105910528F17E
:102610000E948E19DC01CB010296A11DB11D898398
:102620009A83AB83BC8300E010E020E030E044E01C
:1026300050E0BE016F5F7F4F82E00E949B12182F17
:10264000882361F00E943D1A6093EF017093F001BE
:102650008093F1019093F20101C011E0812F0F905E
:102660000F900F900F90DF91CF911F910F910895D0
:10267000AF92BF92CF92DF92EF92FF920F931F9390
:10268000CF93DF937C015B016A010E945812811194
:1026900003C001E010E002C00AE010E0C1E0D0E0B9
:1026A000F894B501C701F60109957894811115C018
:1026B00021960C171D0794F0CC9F9001CD9F300DF3
:1026C000300D112480E090E045E34A95F1F70000D9
:1026D000019682179307C1F7E3CF81E0DF91CF9195
:1026E0001F910F91FF90EF90DF90CF90BF90AF9030
:1026F0000895AF92BF92CF92DF92EF92FF920F9325
:102700001F93CF93DF9300D000D000D0CDB7DEB7BA
:102710007B01C0903D01D0903E0101E010E09E01A0
:102720002A5F3F4F40E050E060E070E080E00E94B0
:102730009B12182F882309F43EC056018FEFA81A68
:10274000B80A6091EB017091EC018091ED019091DC
:10275000EE010E94581A643671058105910518F141
:1027600005E010E09E012F5F3F4F40E050E060E049
:1027700070E081E00E949B12182F65E070E0C501B7
:102780000E946B1491E02E81281390E0192339F1F7
:102790000E943D1A6093EB017093EC018093ED0170
:1027A0009093EE0111C065E070E0C5010E946B14CA
:1027B0009E818913D5CF85E0F6013196DE01119611
:1027C00001900D928A95E1F7112349F085E0FE0111
:1027D0003196A6EEB1E001900D928A95E1F785E081
:1027E000E6EEF1E0D70101900D928A95E1F7812F95
:1027F00026960FB6F894DEBF0FBECDBFDF91CF9106
:102800001F910F91FF90EF90DF90CF90BF90AF900E
:1028100008950F931F93CF93DF93EC018B0149E74A
:1028200053E10E943813882351F041EF52E1B8017F
:10283000CE01DF91CF911F910F910C94381380E05E
:10284000DF91CF911F910F9108950F931F93CF9315
:10285000DF93F894C0913D01D0913E01CE010196E5
:1028600025E0FB01DC0101900D922A95E1F765E07E
:1028700070E00E946B1488837894F8946E817F8155
:10288000888599850091E2011091E3012091E4018E
:102890003091E501601771078207930751F060934B
:1028A000E2017093E3018093E4019093E5010E94BB
:1028B00071197894DF91CF911F910F9108950E9423
:1028C000A9190E94B81B0E94D11B0E94E31B0E9401
:1028D000A30DFBCF0895FC01680F791F8FEF91E3E3
:1028E000E617F70771F02191822728E030E087FF93
:1028F00003C0880F892701C0880F21503109B9F71B
:10290000EFCF08950F931F93CF93DF93C42FD22F50
:10291000FC0182818823C9F04093F5010E94311A9D
:102920009093F4018093F30180E28C0F883008F0DB
:1029300057C0C77081E001C0880FCA95EAF7DF91E0
:10294000CF911F910F910C94C6038091F50148130C
:1029500030C08091F3019091F4010E94491A8837A8
:10296000910538F510E21D0FCD17B9F080E28C0FFC
:10297000883040F4C77081E001C0880FCA95EAF73B
:102980000E94CD03183028F581E09D2F977001C07B
:10299000880F9A95EAF70E94C603802F0E94BD0314
:1029A0001830F0F4D77081E001C0880FDA95EAF7AB
:1029B0000AC080E28C0F883098F4C77081E001C0B3
:1029C000880FCA95EAF7DF91CF911F910F910C9470
:1029D000CD03802FDF91CF911F910F910C94BD03F8
:1029E000DF91CF911F910F9108950F939C01CB011F
:1029F000243F4CE5340731F188F4293DFCE53F07DD
:102A0000D9F02A3D4CE5340779F1283D3C45A9F53C
:102A100006E221EE41EE68ED7CE52BC0263FFCE5A9
:102A20003F07E1F0A8F0273F3C4539F507E225EEE6
:102A300046EE67EF7CE51DC007E225EE45EE69ED49
:102A40007CE517C006E221EE40EE64EF7CE511C0A4
:102A500007E225EE44EE65EF7CE50BC006E221EED1
:102A600042EE66EF7CE505C008E221E045EE6AED46
:102A70007CE50E94821480E008C0FC0182818823EA
:102A800019F01092F50101C081E00F910895CF93E4
:102A9000DF93EC01FB018281882309F426C1C43055
:102AA000FDE5DF0760F4CB3F9CE5D90768F49E01A4
:102AB00022503C452431310508F018C105C0C2360A
:102AC000EDE5DE0709F012C10E94D40C90930A02D2
:102AD00080930902C031FCE5DF0709F4CAC008F0A1
:102AE00041C0C8309CE5D90709F4A4C0F0F4C43053
:102AF000FCE5DF0709F48CC068F4C2309CE5D90717
:102B000009F482C0C330DC4509F0E5C080910902B8
:102B10008260DFC0C630FCE5DF0709F483C008F03F
:102B200085C0809109028860D4C0CC309CE5D9076B
:102B300009F490C068F4CA30FCE5DF0709F47EC0F0
:102B400008F084C00E941E06809109028068C1C0FE
:102B5000CE309CE5D90709F481C008F086C0809189
:102B6000090294C0CD3FFCE5DF0709F47BC038F5CE
:102B7000C4319CE5D90709F49AC058F4C231FCE588
:102B8000DF0709F47AC008F07EC0809109028F7BCC
:102B9000A0C0CB3F9CE5D907F1F108F03FC0C5319B
:102BA000DC4509F098C08091090282FB222720F9B8
:102BB00091E0922790FB82F990FB83F98AC0C130A3
:102BC0008DE5D80709F467C050F480910A02CF3F21
:102BD000ECE5DE07C1F108F05BC08D7F65C0C33056
:102BE0008DE5D80709F471C008F46DC0C236DD4523
:102BF00009F071C08091090284FB222720F991E03D
:102C0000922790FB84F965C080910902816061C0C0
:102C10008091090216C080910A0216C080910A02B2
:102C2000826042C080910902806153C08091090294
:102C300080624FC08091090280644BC0809109027C
:102C40008860846046C0826081602EC080910902E5
:102C50008E7F3FC0809109028D7F3BC08091090229
:102C6000877F37C080910A0214C0809109028F7E4D
:102C700030C0809109028F7D2CC00E941E06809179
:102C800009028F7726C080910902877F8B7F21C040
:102C90008D7F8E7F09C080910A02982F9095917048
:102CA0008E7F892B90FB81F980930A0214C00E94C9
:102CB0001E068091090287FB222720F991E09227C6
:102CC00090FB87F906C081E001C080E00E946B0D97
:102CD00002C0809309028091090290910A020E9429
:102CE000E50C0E941E0680E001C081E0DF91CF91DB
:102CF0000895CF93DF9386319C4541F5EB010E9407
:102D0000020C982F8A8120910001309101018823C3
:102D100079F09A7A81E009F480E08093F6019111CC
:102D200002C069E201C065E3C9010E945D190AC0E1
:102D30008091F601811102C069E201C065E3C90119
:102D40000E945F190E94540C80E001C081E0DF9175
:102D5000CF9108958EE14A9B02C08150E1F74A9BD2
:102D6000FECF08955A9880E28A95F1F75A9A08950D
:102D7000FC012AE02A95F1F728E090E080E031E0BC
:102D800040E14A95F1F7880F4A9B02C08160932782
:102D900000C0000040E14A95F1F7215089F720E199
:102DA0002A95F1F729B100C0000030E13A95F1F71A
:102DB00022FB222720F992272081920F90830895E9
:102DC000EF92FF920F931F93CF93DF931F92CDB794
:102DD000DEB719828C017C01E60EF11C0E151F0571
:102DE00051F00E94AA16CE0101960E94B816F80171
:102DF00081938F01F3CF81E09981911180E00F9051
:102E0000DF91CF911F910F91FF90EF900895529A0B
:102E10005A9A089552985A9AEA9AE9E6F0E080811F
:102E20008F7C80830895615091E001C0990F6A956D
:102E3000EAF720E031E0992361F0492F482319F0A7
:102E40005A9A232701C05A9840E24A95F1F796957D
:102E5000F2CF222311F05A9A01C05A9880E28A9543
:102E6000F1F75A980895FF920F931F93CF93DF9332
:102E7000EC018C01060F111DC017D10741F0F9902C
:102E80000E94B21668E08F2D0E941317F5CFDF91D4
:102E9000CF911F910F91FF9008951F920F920FB63F
:102EA0000F921124EF92FF920F931F932F933F9352
:102EB0004F935F936F937F938F939F93AF93BF9342
:102EC000EF93FF93CF93DF931F92CDB7DEB71982B5
:102ED0000E94AA16CE0101960E94B816A82FA695A8
:102EE000A695A6959A2F969595702A2F2570920FE4
:102EF000292F237096959695920F877089137CC021
:102F00008981811179C0A43008F076C080E18A956A
:102F1000F1F75A9A529AB2E0BA95F1F700C05A986E
:102F2000EA2EF12CEAE0AE9FD0011124AD5FBE4F36
:102F30001896ED91FC9119973097B1F060913D0191
:102F400070913E0116962D913C911797260F371FD1
:102F500013968D919C911497680F791F15964C913B
:102F6000159712968C9109958AE08E9DF0018F9DA0
:102F7000F00D1124ED5FFE4F6581662351F08091C5
:102F80003D0190913E0126813781820F931F0E945F
:102F900033170E94B216F0E1FA95F1F75A98529859
:102FA0005A9A80E18A95F1F78AE08E9D80018F9D83
:102FB000100D11240D5F1E4FD80112966C911297BF
:102FC000662399F080913D0190913E0113962D91D9
:102FD0003C911497820F931F0E94E016D801ED9147
:102FE000FC91811105C082E004C0D801ED91FC91F3
:102FF00088E080830E94AA160F90DF91CF91FF9105
:10300000EF91BF91AF919F918F917F916F915F9160
:103010004F913F912F911F910F91FF90EF900F9043
:103020000FBE0F901F9018950F931F93CF93DF93B0
:10303000843091050CF0A9C02AE0289FF001299F57
:10304000F00D1124ED5FFE4F20813181232B09F417
:103050009CC0EC01F894529A5A9885E08A95F1F751
:1030600000008C2F869585709C2F9570890F982F66
:103070009370869586958E0123E0000F111F2A9587
:10308000E1F7890F082B0E94B216A4E0AA95F1F788
:1030900000C068E0802F0E941317B0E1BA95F1F7E5
:1030A00052985A9A4A9902C000C0FCCF87E090E03B
:1030B0004A9B17C0019799F4529A5A9A8AE08C9FBA
:1030C000F0018D9FF00D1124ED5FFE4F0190F08116
:1030D000E02D81E08083789481E090E058C000C0CA
:1030E000E7CF8AE08C9F80018D9F100D11240D5F2A
:1030F0001E4FF80165816623B9F080913D019091E2
:103100003E0126813781820F931F0E94E0168111B4
:103110000BC0529A5A9AD801ED91FC9182E08083BB
:10312000789482E090E033C00E94AA16B0E2BA958B
:10313000F1F75A98529AE0E1EA95F1F78AE08C9F0C
:10314000F0018D9FF00D1124ED5FFE4F628166232B
:1031500051F080913D0190913E0123813481820F95
:10316000931F0E9433170E94B2168AE08C9FF001D1
:103170008D9FF00D1124ED5FFE4F0190F081E02D49
:103180001082789480E090E002C084E090E0DF91CB
:10319000CF911F910F9108959093FD018093FC01B1
:1031A00008950E942D12811103C08091F7010895A6
:1031B000E091FC01F091FD01309721F00190F08148
:1031C000E02D099480E00895E091FC01F091FD016B
:1031D000309721F00280F381E02D09940895209129
:1031E000FA013091FB012817390771F09093FB0128
:1031F0008093FA01E091FC01F091FD01309721F0FC
:103200000680F781E02D099408952091F80130910E
:10321000F9012817390771F09093F9018093F801AB
:10322000E091FC01F091FD01309721F00084F185DF
:10323000E02D09940895FC01329697E080E09150CA
:1032400029F021912223D9F38F5FF9CF08956623C6
:1032500049F0FC01329608962191621729F0E8178F
:10326000F907D1F780E0089581E008959C01FC0101
:1032700032969FEF80E04191461789F09F3F19F405
:10328000411101C0982F8F5F8630A9F79F3F39F019
:10329000F901E90FF11D97FDFA95628308950895EC
:1032A0009C012A5F3F4FFC014281461301C01282FC
:1032B000019682179307B9F708950C9436190C9468
:1032C0005019029626E0FC0111922A95E9F708951B
:1032D00010922202109223021092240210922502D0
:1032E0000895CF92DF92EF92FF926B017C010E94D2
:1032F0002D1281110EC00E943D1AC61AD70AE80A83
:10330000F90AC0922202D0922302E0922402F092A3
:103310002502FF90EF90DF90CF9008950F931F93B9
:103320000E942D12882321F01F910F910C943D1AB9
:103330000E943D1A00912202109123022091240242
:1033400030912502600F711F821F931F1F910F91F3
:103350000895089508950C94AA190C94AA19CF936E
:103360000E94AD190E94A2110E94AB19C0E08C2FDF
:103370000E946C10811104C0CF5FCA30C1F701C038
:1033800081E0CF9108950C94AA190C94C3198091EF
:103390002E02843049F10E94C51980E00E94660225
:1033A0001092FE0120E488E190E00FB6F894A89511
:1033B000809360000FBE2093600083B7817F84609C
:1033C00083BF83B7816083BF7894889583B78E7FEE
:1033D00083BF0FB6F894A8958091600088618093B0
:1033E0006000109260000FBE08950C94AA190E940C
:1033F0001E060E94D1180E9466020C94F5191F92B5
:103400000F920FB60F9211248F939F93AF93BF9398
:103410008091FE01811113C08091260290912702B4
:10342000A0912802B09129024196A11DB11D80935F
:10343000260290932702A0932802B0932902BF91FD
:10344000AF919F918F910F900FBE0F901F90189585
:1034500082E084BD93E095BD9AEF97BD80936E00A6
:1034600008952FB7F8948091260290912702A09199
:103470002802B09129022FBF08952FB7F8946091C8
:1034800026027091270280912802909129022FBF75
:1034900008959C014FB7F8948091260290912702DD
:1034A000A0912802B09129024FBF821B930B08956F
:1034B000CF92DF92EF92FF922FB7F894C09026023E
:1034C000D0902702E0902802F09029022FBFA70198
:1034D0009601261B370B480B590BCA01B901FF9007
:1034E000EF90DF90CF90089578941F920F920FB6CF
:1034F0000F9211248F939F93AF93BF9380912602D5
:1035000090912702A0912802B09129020196A11D55
:10351000B11D8093260290932702A0932802B093B6
:103520002902BF91AF919F918F910F900FBE0F9085
:103530001F90189587E797E79093010880930008FC
:103540009AE088E10FB6F894A895809360000FBECA
:1035500090936000FFCF90934101809340010895C4
:103560008091070208950895CF93DF9321E020937F
:10357000E9002FEF3091E800215035FD06C035ED10
:103580003A95F1F700002111F5CF2091E80025FFD1
:1035900014C0EC0140E050E068E070E00E945C1C68
:1035A0008091E8008E778093E80088E0FE01AFEF1D
:1035B000B1E001900D928A95E1F7DF91CF910895E6
:1035C0000895089580912D02811109C00E94ED1D7A
:1035D0000E944A1E8091E20084608093E200089578
:1035E00010922D02089508950895089542E061EC27
:1035F00081E00C94661D80913002833009F460C034
:1036000030F4813071F0823009F499C008958A3025
:1036100009F485C08B3009F46BC0893009F0A7C06C
:1036200020C080912F02813A09F0A1C08091E8006A
:10363000877F8093E8008091330290913402892B38
:1036400021F468E08FEF91E003C060E080E090E05B
:1036500070E00E94A71C8091E8008B778093E800BF
:10366000089580912F02813209F081C08091330248
:1036700090913402892B09F07AC08091E800877F0D
:103680008093E8008091E80082FD05C080912E02C1
:103690008111F8CF6CC02091F3008091F20090E08E
:1036A000922B029729F48091F1008B7F813021F4D5
:1036B0008091F100809307028091E8008B7753C0DE
:1036C00080912F02813A09F052C08091330290918B
:1036D0003402892B09F04BC08091E800877F8093EA
:1036E000E8008091E80080FFFCCF80912B0136C07C
:1036F00080912F028132D9F580913302909134026A
:10370000892BA9F58091E800877F8093E8000E94CB
:103710009B1D8091310280932B010C941E06809199
:103720002F02813221F58091E800877F8093E800A5
:103730000E949B1D8091320280930802089580911F
:103740002F02813AA1F48091E800877F8093E800FE
:103750008091E80080FFFCCF809108028093F10007
:103760008091E8008E778093E8000C949B1D08956B
:1037700084B7877F84BF0FB6F894A89580916000C6
:10378000886180936000109260000FBE90E080E836
:103790000FB6F89480936100909361000FBE0C9473
:1037A000990D0E94ED1D0E944A1EE2EEF0E080811C
:1037B0008460808378940E94DF200E94A70D81E2BC
:1037C00091E00C94CC1880912E028530A9F4809160
:1037D0002E02853079F40E94C71980912C0288232B
:1037E000B1F30E94AF19882391F30E94461C0E94F6
:1037F0001E06EDCF0E94F7190C94B10D0C94001C1D
:10380000292F332723303105C1F058F421303105F9
:1038100079F02230310591F582E290E02EE332E03A
:1038200031C021323105E1F02232310501F126C0EB
:1038300082E190E020E632E025C0992781309105B1
:1038400049F028F00297D1F4E4E1F2E005C0EAE3A0
:10385000F2E002C0ECE2F2E0849190E09F0112C03D
:10386000672B61F489E090E020E532E00BC0672B24
:1038700029F480E490E022E732E004C080E090E0A8
:1038800020E030E0FA0131832083089580E189BD92
:1038900082E189BD09B400FEFDCF8091D8008F7D03
:1038A0008093D8008091E00082608093E000809156
:1038B000E00081FDFCCF0895CF92DF92EF92FF925E
:1038C0000F931F93CF93DF93EC018B017A010E943A
:1038D000BA1D811133C0E114F10439F0F701808180
:1038E0009181081B190BC80FD91FC12CD12C0115B0
:1038F000110519F18091E80085FD16C08091E8005E
:103900008E778093E800E114F10449F0F70180819B
:103910009181C80ED91ED182C08285E00FC00E945D
:10392000BA1D882321F30AC089918093F1000150C8
:103930001109FFEFCF1ADF0ADACF80E0DF91CF91D4
:103940001F910F91FF90EF90DF90CF9008952091FD
:103950003502309136022617370748F06115710598
:1039600039F42091E8002E772093E80001C0B901D6
:10397000FC0120E06115710579F180912E02882308
:10398000F1F18530F1F18091E80083FD3CC0809138
:10399000E80082FD2EC08091E80080FFEBCF2091EF
:1039A000F3008091F20090E0922B6115710551F0C7
:1039B0008830910538F421912093F100615071090C
:1039C0000196F3CF21E0089709F020E08091E8000C
:1039D0008E778093E800CECF2111CFCF0AC080919F
:1039E0002E02882361F0853061F08091E80083FD2C
:1039F0000AC08091E80082FFF2CF80E0089582E063
:103A0000089583E0089581E0089520913502309172
:103A100036022617370748F06115710539F42091F1
:103A2000E8002E772093E80001C0B901FC0120E0F6
:103A30006115710591F180912E02882309F440C02F
:103A4000853009F43FC08091E80083FD3DC080913E
:103A5000E80082FD2FC08091E80080FFE9CF20912F
:103A6000F3008091F20090E0922B6115710559F0FE
:103A70008830910540F424912093F10031966150F3
:103A800071090196F2CF21E0089709F020E08091BA
:103A9000E8008E778093E800CBCF2111CCCF0AC00D
:103AA00080912E02882361F0853061F08091E800DA
:103AB00083FD0AC08091E80082FFF2CF80E0089584
:103AC00082E0089583E0089581E00895982F97306B
:103AD00068F59093E900981739F07091EC00209107
:103AE000ED005091F00003C0242F762F50E021FD0F
:103AF00002C09F5FECCF3091EB003E7F3093EB0034
:103B00003091ED003D7F3093ED003091EB0031605E
:103B10003093EB007093EC002093ED005093F00095
:103B20002091EE0027FDE5CF80E008958F7080930F
:103B3000E90081E0089580912F0287FF11C08091F4
:103B4000E80082FD05C080912E028111F8CF11C0DE
:103B50008091E8008B770BC080912E02882349F07A
:103B60008091E80080FFF8CF8091E8008E77809305
:103B7000E80008952091E4003091E50095E6409139
:103B8000EC00842F817040FF23C08091E80080FD0D
:103B90001DC080912E02882399F0853099F0809184
:103BA000EB0085FD11C04091E4005091E500241721
:103BB000350729F3915011F09A01E1CF84E008957F
:103BC00082E0089583E0089581E0089580E00895FB
:103BD0004091E80042FFDDCF08950E945B1E0E94E5
:103BE000631EE0EEF0E0808181608083E8EDF0E02C
:103BF00080818F77808319BCA7EDB0E08C918E7F98
:103C00008C9380818F7E808310922D0208950F9374
:103C10001F93CF93DF930E945B1E0E94631EC8ED2B
:103C2000D0E088818F7788838881806888838881C5
:103C30008F7D888319BC10922E0210922A02109256
:103C40002C0210922B0200EE10E0F80180818B7F95
:103C5000808388818160888342E060E080E00E9408
:103C6000661DE1EEF0E080818E7F8083E2EEF0E081
:103C7000808181608083808188608083F801808179
:103C80008E7F8083888180618883DF91CF911F91AF
:103C90000F910895E8EDF0E080818F7E8083E7ED5D
:103CA000F0E080818160808384E082BF81E0809346
:103CB0002D020C94071EE8EDF0E080818E7F80835A
:103CC0001092E20008951092DA001092E100089537
:103CD0001F920F920FB60F9211242F933F934F9381
:103CE0005F936F937F938F939F93AF93BF93EF9364
:103CF000FF938091E10082FF0BC08091E20082FF80
:103D000007C08091E1008B7F8093E1000E94DE205C
:103D10008091DA0080FF1FC08091D80080FF1BC017
:103D20008091DA008E7F8093DA008091D90080FF45
:103D30000DC080E189BD82E189BD09B400FEFDCFDF
:103D400081E080932E020E94E21A05C019BC1092F5
:103D50002E020E94F01A8091E10080FF19C080912C
:103D6000E20080FF15C08091E2008E7F8093E20028
:103D70008091E20080618093E2008091D8008062AF
:103D80008093D80019BC85E080932E020E94F41A1B
:103D90008091E10084FF30C08091E20084FF2CC05C
:103DA00080E189BD82E189BD09B400FEFDCF80912B
:103DB000D8008F7D8093D8008091E1008F7E809322
:103DC000E1008091E2008F7E8093E2008091E2002A
:103DD00081608093E20080912A02882311F084E0C0
:103DE00007C08091E30087FD02C081E001C083E04D
:103DF00080932E020E94F51A8091E10083FF29C072
:103E00008091E20083FF25C08091E100877F80934D
:103E1000E10082E080932E0210922A028091E1005C
:103E20008E7F8093E1008091E2008E7F8093E2009C
:103E30008091E20080618093E20042E060E080E0F7
:103E40000E94661D8091F00088608093F0000E94BF
:103E5000F31AFF91EF91BF91AF919F918F917F9155
:103E60006F915F914F913F912F910F900FBE0F90E7
:103E70001F9018951F920F920FB60F9211242F9337
:103E80003F934F935F936F937F938F939F93AF93E2
:103E9000BF93CF93DF93EF93FF93C091E900CF706F
:103EA0008091EC00D82FD17080FDD0E81092E9000D
:103EB0008091F000877F8093F00078940E947E1FAD
:103EC0001092E9008091F00088608093F000CD2B83
:103ED000CF70C093E900FF91EF91DF91CF91BF9137
:103EE000AF919F918F917F916F915F914F913F9192
:103EF0002F910F900FBE0F901F9018951F93CF9387
:103F0000DF93CDB7DEB7AA970FB6F894DEBF0FBE2A
:103F1000CDBFEFE2F2E08091F100819322E0E73340
:103F2000F207C9F70E94FB1A8091E80083FF2EC1B7
:103F300080912F0290913002492F50E04A30510574
:103F400008F024C1FA01EC58FF4F0C940C21803882
:103F500021F0823809F01AC108C080912B0290919B
:103F60002C02992389F082600FC0809133028F70F8
:103F7000873008F00BC18093E9008091EB0085FB4E
:103F8000882780F91092E9009091E800977F90933C
:103F9000E8008093F1001092F100D1C0282F2D7F0E
:103FA00009F0F4C0882319F0823061F0EFC08091ED
:103FB0003102813009F0EAC0933009F080E080934B
:103FC0002C022EC08091310281112AC080913302CF
:103FD0008F702FEF280F263008F0D8C08093E900AB
:103FE0002091EB0020FF1CC0933021F48091EB0066
:103FF000806214C09091EB0090619093EB0021E0FF
:1040000030E0A90102C0440F551F8A95E2F74093A2
:10401000EA001092EA008091EB0088608093EB0048
:104020001092E9008091E800877F8093E8000E9469
:104030009B1DACC08111AAC0109131021F778091E5
:10404000E3008078812B8093E3008091E800877FF4
:104050008093E8000E949B1D8091E80080FFFCCFC8
:104060008091E30080688093E300111102C082E038
:1040700001C083E080932E0289C08058823008F00E
:1040800085C080913102909132028C3D53E09507BA
:1040900079F583E08A838AE289834FB7F894DE0159
:1040A000139620E03EE051E2E32FF0E050935700FA
:1040B000E49120FF03C0E295EF703F5FEF708E2F19
:1040C00090E0EA3010F0C79601C0C0968D939D93A2
:1040D0002F5F243149F74FBF8091E800877F80939D
:1040E000E8006AE270E0CE0101960E94A71C16C0AB
:1040F0006091330270913402AE014F5F5F4F0E94B6
:10410000FE1BBC01892B09F441C09091E800977F08
:104110009093E80089819A810E94051D8091E800B2
:104120008B778093E80032C0803881F58091E80079
:10413000877F8093E80080912A028093F10080912C
:10414000E8008E7772CF811121C080913102909169
:10415000320299270297D4F48091E800877F8093F8
:10416000E8008091310280932A020E949B1D809179
:104170002A02811106C08091E30087FD02C081E020
:1041800001C084E080932E020E94F61A8091E8001C
:1041900083FF0AC08091E800877F8093E8008091C8
:1041A000EB0080628093EB00AA960FB6F894DEBF16
:1041B0000FBECDBFDF91CF911F9108950895CF938A
:1041C00080912E028823A1F0C091E900CF709091D8
:1041D000EC00892F817090FD80E8C82B1092E900D7
:1041E0008091E80083FD0E947E1FCF70C093E9009C
:1041F000CF9108950E94ED1D10922E020895E8EDD2
:10420000F0E08081806180838AE18A95F1F700C0C7
:104210008091D90081700895EE0FFF1F0590F491F1
:10422000E02D0994FB01DC0104C08D9101908019FF
:1042300021F441505040C8F7881B990B0895FB01A9
:10424000DC0102C001900D9241505040D8F7089512
:10425000F999FECF92BD81BDF89A992780B508954E
:10426000A8E1B0E042E050E00C945C21262FF999DF
:10427000FECF92BD81BDF89A019700B4021639F0C5
:104280001FBA20BD0FB6F894FA9AF99A0FBE089596
:104290000396272F0E9437210E943621252F0E9446
:1042A0003721242F0C9437210196272F0E94372184
:1042B0000C943621DC01CB01FC01F999FECF06C03C
:1042C000F2BDE1BDF89A319600B40D9241505040D4
:0842D000B8F70895F894FFCF40
:1042D800B2010121020000000100000000210200DB
:1042E8000000050100000021020406000000000093
:1042F80000B01AB41AE01AE11AB31A01F5F6F73148
:10430800333236946697C6340000000000D80100A6
:00000001FF
