:100000000C945C010C94A3010C94A3010C940B09B7
:100010000C94A3010C94A3010C94A3010C94A301D0
:100020000C94A3010C94A3010C94591A0C942B1B4F
:100030000C94FB150C94A3010C94A3010C94A30144
:100040000C94A3010C94A3010C94A3010C94A301A0
:100050000C94A3010C9448160C94A3010C94A301D6
:100060000C94A3010C94A3010C94A3010C94A30180
:100070000C94A3010C94A3010C94A3010C94A30170
:100080000C94A3010C94A3010C94A3010C94A30160
:100090000C94A3010C94A3010C94A3010C94A30150
:1000A0000C94A3010C94A3010C94A301190C190C3A
:1000B0004B0C4B0CAE0DAE0DAE0DAE0D980C2D0DC8
:1000C0003E0D3E0D9E0DAE0DAE0DA70D420E420E25
:1000D000540E540E4B0E540E540E540E420E420E3D
:1000E000500E540E540E500E981BBF1BB71CBF1B56
:1000F000B71C0B1C2E1CB71C851C941C2300240051
:100100002500260027002D002E001C0018000C00E2
:10011000120013002F0030000B000D000E000F0026
:10012000330034003500110010003600370038006D
:100130003100E5002C004A002A0046004C00015125
:10014000E40001002200210020001F001E00290001
:1001500001001700150008001A0014002B00010010
:100160000A000900070016000400E0000100050075
:10017000190006001B001D00E100010028004D00D1
:100180000151E200E300E0003F0040004100420076
:10019000430044004500010001000100010001008E
:1001A00001004A005000510052004F0001000100C0
:1001B0004D000100010001000100010001004B00A1
:1001C0000100010001000100010001004E000100DA
:1001D0003E003D003C003B003A00010001000100F0
:1001E00001000100005C0100010001000100C95C88
:1001F000C75CC55CC25C010001000100CA5CC85C50
:10020000C65CC35C010001000100010001000100A7
:1002100001000100040330000000160372007500A5
:100220006E006E006500720033003600380030004A
:1002300000000C034F006D006B00620064000000C2
:100240000403090409022200010100A0FA090400C4
:1002500000010301010009211101000122400007F2
:1002600005810308000A1201100100000008EDFEDC
:10027000000005000102030105010906A1010507AF
:1002800019E029E7150025019508750181029501FE
:10029000750881010507190029FF150026FF009543
:1002A0000675088100050819012905950575019154
:1002B00002950175039101C011241FBECFEFDAE052
:1002C000DEBFCDBF04B603FE27C08091FA01909136
:1002D000FB01A091FC01B091FD018730904BA7403C
:1002E000B04BD1F41092FA011092FB011092FC0174
:1002F0001092FD0114BE84B7877F84BF0FB6F894B7
:10030000A8958091600088618093600010926000E1
:100310000FBEE0E0F8E3099511E0A0E0B1E0EAE605
:10032000FAE302C005900D92A832B107D9F721E097
:10033000A8E2B1E001C01D92AA3FB207E1F70E9416
:10034000AA170C94331D0C94000081E0089581E0FD
:1003500008950C94A70108950C94AB011F93CF93BB
:10036000DF9300D000D01F92CDB7DEB749835A8308
:100370006B8330914A0189819A81311114C06623BF
:1003800059F0222349F00E947E13182F682F89818B
:100390009A810E94271303C00E945213182F69816B
:1003A0007A81812F04C00E947E1369817A810F9027
:1003B0000F900F900F900F90DF91CF911F910C94A1
:1003C0006002FC01262F408151816281738184810A
:1003D0000C94AE01CF93DF93EC0160E00E94E10149
:1003E000BE01DF91CF910C94AC010E94B014811139
:1003F00002C00E9450150C9460040C945C04089593
:100400000C94FF0181E008950C940202CF93C82F51
:100410000E9400028C2F0E940402CF91089508953B
:100420000E94300E0E940F022FEF84E39CE02150C7
:1004300080409040E1F700C000000C946E160F93CE
:100440001F93CF93DF93EC0161E00E94E1018C01E7
:10045000BE010E94A901882349F1BE01C8010E9482
:10046000B206882319F1BE01C8010E94040788233F
:10047000E9F0BE01C8010E942F088823B9F08A81E3
:10048000882369F001158CE5180731F00E3D1C45F5
:1004900031F40E9450150AC00E94100207C0CE011C
:1004A000DF91CF911F910F910C94A50180E0DF9116
:1004B000CF911F910F91089580E090E008950895E5
:1004C00026E4829FC0011124FC0127E0729FE00D09
:1004D000F11D1124E60FF11DEE0FFF1FE450FF4F39
:1004E000859194910895880F991FFC01EC5EFD4F52
:1004F000859194910895CF93DF930E9460020E94AA
:100500007703EC01811521E59207A0F5811540E5FF
:10051000940708F086C0C11580E2D807F0F4C11531
:1005200021E0D20708F0DFC0C03ED10588F4C03C0E
:10053000D10508F062C0C130D10509F4D4C008F477
:10054000D0C0CE010497813A910508F4CCC0C9C04F
:10055000C83ED10508F4C7C0C4C0C11540E4D407E3
:1005600008F05CC0C11580E3D80708F04DC0CE018B
:100570009F7046C0811525E59207A0F4811544E5DA
:10058000940708F095C0C11583E5D80708F07AC034
:10059000C11522E5D20708F05FC0DC2FCC27C16F60
:1005A000D06AA1C0811549E59407A0F4C11588E57A
:1005B000D80708F082C0C11526E5D20708F091C01F
:1005C0008C2F0E940B048F71C82FD0E0DC2FCC271A
:1005D000D06289C081154AE5940708F473C090562B
:1005E0008115904208F07DC08D2F8F710E940B0401
:1005F000DD27D0628F71D82B76C0CE01805C910947
:100600000E947302EC016FC0CE019927D3FF03C093
:10061000EC01D86C68C0EC01D06C65C0DF70D06AAA
:1006200062C074E0969587957A95E1F783709C2F68
:10063000937021E030E002C0220F331F9A95E2F759
:100640003C68382BCF70C695C69540E2C49FE00148
:100650001124C22BD32B47C0CE018370992721E0F0
:1006600030E002C0220F331F8A95E2F78C2F869567
:10067000869540E2849FC0011124E901C82BD92B43
:10068000DC6831C0CE018370992721E030E002C0E0
:10069000220F331F8A95E2F78C2F8695869540E2CC
:1006A000849FC0011124E901C82BD92BDA681BC033
:1006B000D82FCC27C46FD06A16C0DC2FCC27C06FD0
:1006C000D06A11C08F700E940B0494E0D695C79534
:1006D0009A95E1F7CF70D0E0DC2FCC27D069C82BFA
:1006E00002C0C0E0D0E0CE01DF91CF910895823802
:1006F000910569F1B0F48133910509F46DC048F4B6
:100700008932910509F463C08A32910509F469C000
:1007100008958533910509F455C089339105B9F0E1
:100720000895833E910569F138F4803E9105B1F05A
:10073000823E910509F10895863E9105A9F1873E13
:100740009105B9F1843E910509F064C023C0209160
:10075000EB0120FD4FC021FD4DC008958091EB01BC
:1007600080FD44C08091EC0180FF44C08091EB018A
:1007700084FD42C083EE4DC08091EB0182FF38C002
:10078000F5CF8091EB0182FD33C08091EC0180FDBB
:1007900031C0ECCF8091EC0181FF32C08091EB0140
:1007A00084FD2AC087EE35C08091EB0183FF26C00F
:1007B000F5CF8091EB0183FD21C08091EC0181FD9B
:1007C0001FC0ECCF8091EB0185FD1CC01DC0809146
:1007D000EB0185FD19C016C08091EB0186FD16C0A6
:1007E00017C08091EB0186FD13C010C089E311C0D2
:1007F00082EE0FC080EE0DC080E00BC086EE09C017
:1008000084EE07C089E205C085E303C08AE201C027
:1008100081E390E008959091EB0192FF0DC0282FA5
:100820002871283019F4877F846006C0282F24712E
:10083000243011F48B7F886093FF0DC0282F28711E
:10084000283119F4877E846106C0282F2471243151
:1008500011F48B7E88612091EC0120FF0DC0382FB0
:100860003871383019F4877F816006C0382F3171B4
:10087000313011F48E7F886021FF0DC0282F287140
:10088000283119F4877E816106C0282F217121311A
:1008900011F48E7E886194FD877E0895E82FF0E044
:1008A000E552FE4F80810895089580EA8A95F1F718
:1008B000089508950C9459040C945A040C94590406
:1008C0000C945E040895CF93DF930E94D30580912A
:1008D000000180910001811102C095E001C090E00B
:1008E0009093E60185E0891B8093E501ADE1B1E0DD
:1008F00042E251E061E070E08D91E82FE295EF7007
:10090000F0E021A18F70EB0102C0CC0FDD1F8A95B2
:10091000E2F7CE019C2F9095922391A392A1892B6F
:1009200082A34A175B0741F7A6E1B1E04DE151E030
:1009300061E070E08D91E82FE295EF70F0E021A189
:100940008F70EB0102C0CC0FDD1F8A95E2F7CE015C
:100950009C2F9095922391A392A1892B82A34A1751
:100960005B0741F7E1EDF1E0ABEDB1E08BED91E03C
:1009700011921D928E179F07D9F785E00E947D0581
:100980000E94F501DF91CF910C94DD050E94B40522
:10099000882309F18091E50190E085529E4F0E94E5
:1009A000F005811114C0809128018F5F8093280188
:1009B000863078F0E091E501F0E0E552FE4F80E00E
:1009C00090E01192019685309105D9F702C01092FE
:1009D00028010C94FD018091E60190E085529E4F24
:1009E0000E940B060C9462046F927F928F929F92EA
:1009F000AF92BF92CF92DF92EF92FF920F931F932D
:100A0000CF93DF938DE1882E81E0982E01ED11E0E8
:100A100096EDA92E91E0B92E712CCC24C394D12C43
:100A2000F40181914F01C82FC295CF70D0E099A1F8
:100A30008F70760101C0EE0C8A95EAF7892F8E2916
:100A400089A38AA16E2C609486218AA30E945504F2
:100A5000E6E1F1E040E050E020E03191A32FA295E3
:100A6000AF70B0E090968C9190E03F7002C0959589
:100A700087953A95E2F780FD07C08C2D042E01C0C2
:100A8000880F0A94EAF701C080E0282B4F5F5F4F80
:100A90004730510511F789A1682269A28AA1E82A85
:100AA000EAA2F8018081281719F0208381E001C0B3
:100AB00080E0782A0F5F1F4FA016B10609F0B0CF73
:100AC0006091E60170E065527E4F272D45E081ED93
:100AD00091E00E947E050E94C604872DDF91CF9190
:100AE0001F910F91FF90EF90DF90CF90BF90AF904C
:100AF0009F908F907F906F9008950895FF920F932D
:100B00001F93CF93DF938C01F62ED72FC42F222370
:100B100049F081E080932B010E942D1690932A01C9
:100B20008093290180912B018823C1F080912901B4
:100B300090912A010E943916069780F0EF2DFD2F23
:100B4000D8014C2F50E0CD01801B910B84179507E5
:100B50001CF48D918193F7CF10922B01DF91CF91EF
:100B60001F910F91FF90089580912C01811112C067
:100B70008091D80080618093D8008AE18A95F1F74E
:100B800000C08091D90080FD02C082E001C081E0F8
:100B900080932C0181E090912C01913009F080E04C
:100BA00008950C94B4050E94D105809300010E9421
:100BB000B40581110C94E40508950E94B4058111D7
:100BC00002C00C94EA05089561E070E081E091E0D4
:100BD0000C94BD0861E070E081E091E00C94C408E1
:100BE000CF93DF93D82FC92F0E945C09892B79F40A
:100BF000ED2FFC2F80E090E0DC01A25DBE4F2C9138
:100C00002193019685309105B9F781E001C080E01C
:100C1000DF91CF91089520E030E0FC014191CF01B8
:100C2000F901E25DFE4F40832F5F3F4F25303105D4
:100C3000A1F70895AF92BF92CF92DF92EF92FF9209
:100C40000F931F93CF93DF937C015B01C42FD22FAF
:100C5000FC0182818823F9F0409335010E942D1612
:100C6000909334018093330180E28C0F883008F038
:100C70006EC0C77081E001C0880FCA95EAF7DF91A6
:100C8000CF911F910F91FF90EF90DF90CF90BF9089
:100C9000AF900C94D50B80913501481335C08091ED
:100CA0003301909134010E9439166C01B701C501DE
:100CB0000E94E910C816D90638F510E21D0FCD17AD
:100CC000B9F080E28C0F883040F4C77081E001C039
:100CD000880FCA95EAF70E94DC0B183058F581E0BE
:100CE0009D2F977001C0880F9A95EAF70E94D50B47
:100CF000802F0E94C20B183050F5D77081E001C0E0
:100D0000880FDA95EAF70AC080E28C0F8830F8F491
:100D1000C77081E001C0880FCA95EAF7DF91CF91D3
:100D20001F910F91FF90EF90DF90CF90BF90AF9009
:100D30000C94DC0B802FDF91CF911F910F91FF90CE
:100D4000EF90DF90CF90BF90AF900C94C20BDF91EB
:100D5000CF911F910F91FF90EF90DF90CF90BF90B8
:100D6000AF9008950F939C01CB01233F4CE53407CE
:100D700031F188F4283DFCE53F07D9F0293D4CE5E9
:100D8000340779F1273D3C45A9F506E221EE41EE15
:100D900067ED7CE52BC0253FFCE53F07E1F0A8F0BF
:100DA000263F3C4539F507E225EE46EE66EF7CE549
:100DB0001DC007E225EE45EE68ED7CE517C006E2B2
:100DC00021EE40EE63EF7CE511C007E225EE44EE34
:100DD00064EF7CE50BC006E221EE42EE65EF7CE5B8
:100DE00005C008E221E045EE69ED7CE50E941A06A7
:100DF00080E008C0FC018281882319F0109235013F
:100E000001C081E00F910895CF93DF93EC01FB01C6
:100E10008281882309F41FC1C230FCE5DF0708F492
:100E20001BC1C6319CE5D90738F09E012A5F3C45BD
:100E30002930310508F010C10E94C3149093EC01D1
:100E40008093EB01C031ECE5DE0709F4C3C008F084
:100E500041C0C8308CE5D80709F49AC0F0F4C4301A
:100E6000ECE5DE0709F487C068F4C2308CE5D807EA
:100E700009F477C0C330DC4509F0E3C08091EB0191
:100E8000826076C0C630ECE5DE0709F46EC008F07B
:100E90007BC08091EB0188606BC0CC308CE5D807BB
:100EA00009F485C068F4CA30ECE5DE0709F474C0C3
:100EB00008F079C00E94300E8091EB01806858C024
:100EC000CE308CE5D80709F476C008F07FC0809159
:100ED000EB018BC0CB3FECE5DE0709F44FC018F502
:100EE000C3318CE5D80709F47DC078F4C131ECE555
:100EF000DE0709F473C0C231DC4509F0A2C00E94CC
:100F0000300E8091EB018F7733C0C5318CE5D80767
:100F100009F472C008F486C0CA3FDC4509F091C0EC
:100F20008091EC013EC0CF3FFCE5DF0709F45FC0D4
:100F300058F4CD3F9CE5D90709F444C008F43FC0FC
:100F40008091EC0182602DC0C130FDE5DF0709F41E
:100F500075C008F45DC0C230DD4509F072C080E0A4
:100F60006EC08091EB01816003C08091EB018061D4
:100F70008093EB0166C08091EB0111C08091EC0180
:100F800082608093EC015DC08091EB018062F0CFC4
:100F90008091EB018064ECCF8091EB0188608460EC
:100FA000E7CF8160EECF8091EB018E7FE1CF809122
:100FB000EB018D7FDDCF8091EB01877FD9CF8091D1
:100FC000EC0118C08091EC018D7FDBCF8091EB01AB
:100FD0008F7ECECF8091EB018F7DCACF8091EB01C8
:100FE0008F7BC6CF8091EB01877F8B7FC1CF8091B4
:100FF000EC018D7F8E7FC5CF8091EB0182FB222794
:1010000020F991E0922790FB82F990FB83F9B0CF11
:101010008091EC01982F909591708E7F892B90FB99
:1010200081F9AFCF0E94300E8091EB0187FB222720
:1010300020F991E0922790FB87F99ACF81E00E94F6
:1010400052158091EB019091EC010E94D4140E9402
:10105000300E80E001C081E0DF91CF910895CF9301
:10106000DF9386319C4541F5EB010E94FF13982FD9
:101070008A812091090130910A01882379F09A7AB6
:1010800081E009F480E080933601911102C069E2A9
:1010900001C065E3C9010E9499150AC0809136011B
:1010A000811102C069E201C065E3C9010E949B157C
:1010B0000E944D1480E001C081E0DF91CF9108953E
:1010C0008EE14A9B02C08150E1F74A9BFECF089512
:1010D0005A9880E28A95F1F75A9A0895FC012AE01D
:1010E0002A95F1F728E090E080E031E040E14A9570
:1010F000F1F7880F4A9B02C08160932700C000006F
:1011000040E14A95F1F7215089F720E12A95F1F75E
:1011100029B100C0000030E13A95F1F722FB222707
:1011200020F992272081920F90830895EF92FF92E9
:101130000F931F93CF93DF931F92CDB7DEB7198222
:101140008C017C01E60EF11C0E151F0551F00E946A
:101150006008CE0101960E946E08F80181938F010C
:10116000F3CF81E09981911180E00F90DF91CF91D1
:101170001F910F91FF90EF90089590933801809305
:101180003701529A5A9A0895909338018093370103
:1011900052985A9AEA9AE9E6F0E080818F7C80833F
:1011A0000895615091E001C0990F6A95EAF720E037
:1011B00031E0992361F0492F482319F05A9A2327E7
:1011C00001C05A9840E24A95F1F79695F2CF222352
:1011D00011F05A9A01C05A9880E28A95F1F75A980C
:1011E0000895FF920F931F93CF93DF93EC018C012F
:1011F000060F111DC017D10741F0F9900E94680831
:1012000068E08F2D0E94D108F5CFDF91CF911F911B
:101210000F91FF9008951F920F920FB60F92112415
:101220002F933F934F935F936F937F938F939F93EE
:10123000AF93BF93CF93DF93EF93FF935A98529A54
:10124000C0913701D09138016D81662321F08E81E4
:101250009F810E94F1080E94680880E18A95F1F759
:101260005A9852985A9A80E18A95F1F76A816623D2
:1012700051F08B819C810E949608E881F98181114F
:1012800004C082E003C0E881F98188E080830E9485
:101290006008FF91EF91DF91CF91BF91AF919F9146
:1012A0008F917F916F915F914F913F912F910F900F
:1012B0000FBE0F901F901895CF93DF93C091370109
:1012C000D0913801F894529A5A9885E08A95F1F7AE
:1012D000000052985A9A80E28A95F1F74A9B0AC018
:1012E000529A5A9AE881F98181E08083789481E06A
:1012F00090E02CC06D81662381F08E819F810E94D9
:10130000960881110AC0529A5A9AE881F98182E0BE
:101310008083789482E090E019C00E94600880E2A7
:101320008A95F1F75A98529A80E18A95F1F76A8185
:10133000662321F08B819C810E94F1080E9468083D
:10134000E881F9811082789480E090E0DF91CF917C
:10135000089590933E0180933D010895E0913D01F1
:10136000F0913E01309721F00190F081E02D099439
:1013700080E00895E0913D01F0913E01309721F029
:101380000280F381E02D0994089520913B01309172
:101390003C012817390771F090933C0180933B0181
:1013A000E0913D01F0913E01309721F00680F781F8
:1013B000E02D099408952091390130913A012817C0
:1013C000390771F090933A0180933901E0913D0122
:1013D000F0913E01309721F00084F185E02D0994D1
:1013E000089585B7806885BF85B7806885BF0895F3
:1013F00008950C94F8090C94F9090C94F8090C94CC
:10140000F8090E94F1090E94FD090C94FB090C9453
:10141000B4050E9424160E9463040E947F160C9457
:10142000FF09AF92BF92CF92DF92EF92FF920F939C
:101430001F93CF93DF93CDB7DEB72A970FB6F894FB
:10144000DEBF0FBECDBF0E94F4040E94070A8111C7
:1014500011C08FEF89838A831B820E942D168160C1
:10146000782F9D838C8349815A816B818D810E9465
:10147000A70A40C080E4A82E81E0B82E00E010E06A
:10148000C02E802F0E944E04E82EF501D1905F01FE
:10149000D82631F40F5F1F4F0A30110589F7D9CFD5
:1014A0008091C50181FD0E94540480E0FF24F394E3
:1014B0009D2D9F21D1F08E83CF82EF2081E009F412
:1014C00080E088870E942D168160782F9A8789870F
:1014D0004E815F8168858A850E94A70AF801E05CD9
:1014E000FE4F8081F826F08205C08F5FFF0C8730A9
:1014F000F9F6D0CF0E94AE0990913F018917B1F063
:101500000E94AE0980933F012A960FB6F894DEBF81
:101510000FBECDBFDF91CF911F910F91FF90EF9044
:10152000DF90CF90BF90AF900C9406022A960FB632
:10153000F894DEBF0FBECDBFDF91CF911F910F9109
:10154000FF90EF90DF90CF90BF90AF900895CF9332
:10155000DF93CDB7DEB72B970FB6F894DEBF0FBE83
:10156000CDBF4F83588769877A878B87DE011196B5
:1015700086E0FD0111928A95E9F785E0FE01379634
:1015800001900D928A95E1F749815A816B817C81A6
:101590008D819E810E94EC102B960FB6F894DEBFD1
:1015A0000FBECDBFDF91CF910895FC018081918165
:1015B0000E94C0130895CF93882309F482C0C82FD6
:1015C0008238C1F40E94AE0981FD7BC069E380913D
:1015D000090190910A010E9499150E944D142FEF64
:1015E00081EE94E0215080409040E1F700C000007F
:1015F00069E319C08338F1F40E94AE0980FD61C02F
:1016000063E58091090190910A010E9499150E9459
:101610004D142FEF81EE94E0215080409040E1F78F
:1016200000C0000063E58091090190910A010E94C9
:101630009B1544C08438C1F40E94AE0982FD41C0AC
:1016400067E48091090190910A010E9499150E9416
:101650004D142FEF81EE94E0215080409040E1F74F
:1016600000C0000067E4DFCF8CEF8C0F813AD0F42C
:101670006C2F8091090190910A010E9463158823C3
:1016800049F06C2F8091090190910A010E949B15ED
:101690000E944D146C2F8091090190910A010E94C3
:1016A00099150CC080E28C0F883058F4C77081E027
:1016B00001C0880FCA95EAF70E940214CF910C94DA
:1016C0004D14CF910895882309F45BC0682F8238A8
:1016D00079F40E94AE0981FF54C069E38091090149
:1016E00090910A010E9499150E944D1469E310C05F
:1016F0008338B1F40E94AE0980FF43C063E5809156
:10170000090190910A010E9499150E944D1463E508
:101710008091090190910A010E949B150C944D142F
:10172000843879F40E94AE0982FF2BC067E480916F
:10173000090190910A010E9499150E944D1467E4D5
:10174000E7CF8CEF860F813A18F380E2860F88305E
:1017500048F4677081E001C0880F6A95EAF70E943B
:101760000814DCCF8BE5860F833020F480E090E016
:101770000C94C509685A673120F480E090E00C941D
:10178000DB090895CF93C82F0E94DB0AC93349F4BF
:101790002FEF87EE93E0215080409040E1F700C0AA
:1017A00000008C2FCF910C94630B882321F00E94B2
:1017B00002140C944D140895882321F00E940814FB
:1017C0000C944D140895CF92DF92EF92FF920F93F5
:1017D0001F93CF93DF937C01062FC72FFC01D58188
:1017E000D295DF70128111110E941F140E94F8130C
:1017F000882399F0112389F08C2F807F803421F089
:1018000080E2800F883048F082E00E9497140E94A6
:10181000F81391E0D82ED92601C0D12CCC2EC29439
:101820008FE0C8228C2D90E0FC01EA5AFF4F0C9407
:10183000EB1C8C2F807FCF70882311F0C295C07F66
:10184000112399F0CC2309F464C180E2800F883021
:1018500010F0011104C08C2F0E94021403C08C2FC1
:101860000E9412140E944D1454C1802F0E94630BD9
:10187000CC2309F473C180E2800F883010F001118D
:1018800004C08C2F0E94081403C08C2F0E941814CF
:101890000E944D1463C18C2F807FCF70803211F075
:1018A000C295C07F002319F00130C9F022C0112376
:1018B00071F0DD2341F0D13031F40E9432148C2BD1
:1018C0000E943A144BC10E9432148C2B1DC0DD23A0
:1018D00019F0D13009F442C10E94431425C01123EC
:1018E00021F0D63008F03AC10EC0D53008F036C12C
:1018F0001BC0112361F0DD2331F0F701858180FFEA
:1019000008C18F7085838C2F0E94D50B27C1DD23E2
:1019100059F0093309F00EC1FFEF27EE83E0F150D3
:1019200020408040E1F704C18C2F0E94DC0B16C1DF
:101930008C2F837009F045C0111114C1402F4295BE
:1019400046954770440F440F602F6F70862F90E0CC
:10195000A0E0B0E0042E04C0880F991FAA1FBB1F8F
:101960000A94D2F704FF10C00FE010E020E030E04E
:1019700004C0000F111F221F331F4A95D2F7009594
:1019800010952095309503C000E010E09801C695B1
:10199000C695C370BC01CD01602B712B822B932B9C
:1019A000C23049F058F4C13019F00E943D12DAC03B
:1019B0000E942B12D7C00E944F12D4C00E9429123D
:1019C000D1C0112319F08C2F817001C08695882316
:1019D00009F4C8C0402F429546954770440F440F04
:1019E000602F6F70862F90E0A0E0B0E0042E04C05E
:1019F000880F991FAA1FBB1F0A94D2F704FF10C0BB
:101A00000FE010E020E030E004C0000F111F221FA3
:101A1000331F4A95D2F7009510952095309503C055
:101A200000E010E09801C695C695C370BC01CD01D9
:101A3000602B712B822B932BC23049F058F4C130AC
:101A400019F00E9402138EC00E94F0128BC00E94F7
:101A5000141388C00E94631285C0CF70112339F01F
:101A60008C2F0E948912802F0E94D50B7BC0802F63
:101A70000E94DC0B8C2F0E94AA1274C0023F01F15D
:101A800028F4003F41F0013FA1F03FC0033FF9F0CF
:101A9000043F39F13AC0112341F0D53008F05EC05F
:101AA0008C2F8F710E94CF1259C0D63008F056C0CB
:101AB000F7CF112339F08C2F8F710E9489124EC0FD
:101AC0001123C9F38C2F8F710E94AA1247C01123D2
:101AD00029F08C2F8F710E94741240C00E946F12E7
:101AE0003DC0112349F0CF718C2F0E94891263E011
:101AF0008C2F0E94821432C081E00E949714D23051
:101B000068F182E00E94971429C0112331F0DD238F
:101B100091F2802F0E94DB0A21C0DD2399F2093364
:101B200049F49FEFE7EEF3E09150E040F040E1F739
:101B300000C00000802F0E94630B10C04C2F4F701C
:101B4000602FC7010E945C020E949A110FC04C2FA7
:101B50004F70602FC7010E945F0208C088EF8C0D94
:101B6000843020F40E94AE090E940602DD20C9F0F4
:101B70000E94F41380FD15C0F70112820E94EE133B
:101B80000E948912C7010E94F20D0E94EE13DF919C
:101B9000CF911F910F91FF90EF90DF90CF900C9419
:101BA000AA12DF91CF911F910F91FF90EF90DF90DC
:101BB000CF9008950F931F93CF93DF93EC0168812B
:101BC00079818A810E94CB138C010E9426130E9486
:101BD0001712B801CE010E94E30BDF91CF911F9144
:101BE0000F910895CF93DF93EC01988189812B8128
:101BF0003C81232B31F08F3F31F481E09F3F19F47A
:101C000003C081E001C080E080FD19C0CE010E94C8
:101C10001F0281110CC00E94F813882381F08A8171
:101C2000882369F082E0DF91CF910C949714CE0164
:101C30000E94DA0DCE01DF91CF910C94EA01DF9181
:101C4000CF9108950E941F140E942F140C944D14DC
:101C50008091090190910A010E949D150C94220E19
:101C60000E940F140C94280EE92FE295EF704E2F6E
:101C700050E0FA013297EE30F105B0F4EA59FF4F27
:101C80000C94EB1C803F91F018F4883E68F40EC071
:101C9000843F51F40BC0883E48F0813F29F406C0D0
:101CA00093FB882780F9089580E0089581E00895E6
:101CB0000E94C0130E94340E0895CF93DF9300D08A
:101CC00000D01F92CDB7DEB70F900F900F900F90FE
:101CD0000F90DF91CF910895CF93DF9300D000D084
:101CE00000D0CDB7DEB726960FB6F894DEBF0FBE94
:101CF000CDBFDF91CF9108951F93CF93DF93C09114
:101D00004B0116E080914C01C81799F0D0E01C9F60
:101D1000F0011D9FF00D1124E35BFE4F40815181C6
:101D200062817381848195810E946C0E2196C770B7
:101D3000E9CFDF91CF911F91089540917D0150919E
:101D40007E0160917F01709180018091810190916D
:101D500082010C946C0E0F931F93CF93DF938091AD
:101D6000820182958F7009F05DC080917F01882388
:101D700009F458C080914B0110914C0160917D0194
:101D800070917E01C0918001D091810191E06F3FFF
:101D900009F090E0292F06E0811709F443C020974D
:101DA00021F07F3F21F030E003C031E001C0322F4D
:101DB00090E030FD34C0089FF001099FF00D112420
:101DC000DF01A35BBE4F11963C911197371327C0DB
:101DD0003C91361324C012963C91129731111FC0CA
:101DE00013964D915C9114974C1B5D0B4837510530
:101DF000B0F4809182018F70806180938201EE5AED
:101E0000FE4F80818F70806180838DE791E00E941A
:101E1000F20DDF91CF911F910F910C947C0E0196E2
:101E20008770BACFDF91CF911F910F9108959F9244
:101E3000AF92BF92CF92DF92EF92FF920F931F93D8
:101E4000CF93DF93CDB7DEB761970FB6F894DEBFBF
:101E50000FBECDBF8C0185E0F801DE011D9601901B
:101E60000D928A95E1F7F80140815181E2809091CD
:101E70007D0160917E0120918001309181012115C9
:101E8000310531F06F3F31F481E09F3F19F403C019
:101E900081E001C080E0F82FF1709F2E80FD46C1E7
:101EA000F801A380B4808DE7C82E81E0D82EF09091
:101EB0007F01F501E21BF30BFF2009F4DFC08091E5
:101EC0008201E837F10508F09BC0282F207F09F038
:101ED00052C0561313C0491311C0FE2CE1100EC09E
:101EE0008F708061809382010E949D0EC6010E94C6
:101EF000F20D80918201F801858358C1AB2831F041
:101F00005F3F31F481E04F3F19F403C081E001C02D
:101F100080E080FD03C081E08E2502C080E090E07B
:101F2000F82FF170FF2E80FF1CC080914B01209193
:101F30004C0136E0821709F417C190E0389FF00198
:101F4000399FF00D1124E35BFE4F6181561306C0EB
:101F50006081461303C06281E61203C00196877058
:101F6000E9CFFE2CEE2009F421C18091820181602D
:101F7000809382015AC0561306C0491304C0E11071
:101F800002C0F8019FC04D875E878D859E850E94A7
:101F9000580E882379F1EE2069F120918201822F79
:101FA00082958F7090E0029774F080917D019091FE
:101FB0007E0198878F831986BB86AA862C87CE01DF
:101FC00007960E94F20D86E0F801ADE7B1E00190BE
:101FD0000D928A95E1F70E94AB0E0E949D0E0DC0F6
:101FE000561729F14D875E878D859E850E94580E74
:101FF00081112CC0C8010E94F20DFF24F394D6C0B9
:10200000282F207F69F77A2DB98AA88A6E2D8989B1
:102010000E945D0E8DE791E00E94F20D86E0F601D0
:1020200011928A95E9F70E949D0EF12CBFC04913C9
:10203000D9CFE110D7CFF8018583C8010E94F20DF6
:1020400086E0F60111928A95E9F7B0C0EE2091F290
:1020500020918201822F82958F7090E002970CF47C
:10206000B2CF80917D0190917E019A8389831B82FA
:10207000BD82AC822E83CE010196A3CFE837F10555
:1020800008F047C0FE2CEE2009F4B4CF561330C040
:1020900049132EC02091820120FD21C0822F8295FC
:1020A0008F70482F50E041155105C9F0F801258384
:1020B0004F30510541F08F5F982F9295907F822F7E
:1020C0008F70892B8583C8010E94F20D86E0F8018C
:1020D000ADE7B1E001900D928A95E1F742C086E04C
:1020E000F801ADE7B1E001900D928A95E1F75EC08D
:1020F0004D875E878D859E850E94580E811163CF26
:1021000080918201816080938201C8010E94F20D5A
:102110004DC07A2DB98AA88A6E2D89890E945D0EDC
:1021200086E0F60111928A95E9F71BC0EE2009F4CA
:1021300061CF4D875E878D859E850E94580EF82E53
:10214000882309F457CF86E0F801ADE7B1E00190AC
:102150000D928A95E1F78DE791E00E94D50A0E94E1
:10216000AB0E0E949D0E22C04D875E878D859E8599
:102170000E94C013292F22952F70223028F49F70BF
:1021800039F0811105C00BC0243028F49F7049F448
:10219000805E883020F0C8010E94F20D9F2CF92C3F
:1021A00005C0F8019581907F99F7F9CF8F2D619641
:1021B0000FB6F894DEBF0FBECDBFDF91CF911F9158
:1021C0000F91FF90EF90DF90CF90BF90AF909F90D6
:1021D000089588E790E008951F93CF93DF93CDB7DC
:1021E000DEB72C970FB6F894DEBF0FBECDBF4F837E
:1021F000588769877A878B879C87CE0107960E94CC
:10220000170F8823D1F09F8188852A853B85232B52
:1022100031F08F3F31F481E09F3F19F403C081E03A
:1022200001C080E080FD47C04F81588569857A856F
:102230008B859C850E946C0E3EC086E0FE01379621
:10224000DE01119601900D928A95E1F7FF81E885F4
:102250006A857B856115710531F0EF3F31F481E0CE
:10226000FF3F19F403C081E001C080E080FD23C07E
:1022700020914C0130E0C901019687709927409167
:102280004B0150E084179507F1F1F983EA837D83D0
:102290006C8396E0929FD001939FB00D1124A35BB5
:1022A000BE4FFE01319601900D929A95E1F7809311
:1022B0004C010E947C0E16E080914B0190914C01E4
:1022C000891771F1189FC0011124835B9E4F0E94F2
:1022D000170F882329F1E0914B011E9FF001112473
:1022E000E35BFE4F408151816281738184819581DE
:1022F0000E946C0E80914B0190E0019687709927A7
:1023000080934B01D9CF0E94300E10924C01109255
:102310004B01EDE7F1E086E0DF011D928A95E9F7D8
:102320002C960FB6F894DEBF0FBECDBFDF91CF91D4
:102330001F910895EF92FF920F931F93CF93DF9316
:102340008C01892B09F46CC0F12CEE24E394E80194
:102350002196F8018491843740F4843008F051C00C
:10236000813081F0823019F15BC0853709F444C0B7
:10237000A8F19CE7980F903708F052C08F770E9421
:10238000630B41C00E5F1F4FFE01849190E2980FD6
:10239000983050F48770FE2D01C0FF0F8A95EAF740
:1023A0008F2F0E94221414C00E94DB0A2DC00E5FE2
:1023B0001F4FFE01849190E2980F983060F487706F
:1023C000FE2D01C0FF0F8A95EAF78F2F0E94281477
:1023D0000E944D1419C00E94630B16C00E5F1F4F60
:1023E000FE01C491CC2381F08FE99FE00197F1F7C2
:1023F00000C00000C150F6CF0E5F1F4FFE01F490E9
:1024000003C00E94DB0A8E018F2D882309F49FCF21
:10241000EFE9FFE03197F1F700C000008150F5CF00
:10242000DF91CF911F910F91FF90EF900895089544
:1024300008950C9418120C9419120E941B126093A8
:10244000B4017093B5018093B6019093B7010C94D9
:10245000220E0C941D120F931F930091B401109142
:10246000B5012091B6013091B701602B712B822B01
:10247000932B1F910F910C941D120F931F9300919A
:10248000B4011091B5012091B6013091B7016023DC
:102490007123822393231F910F910C941D120F938C
:1024A0001F930091B4011091B5012091B6013091B4
:1024B000B70160277127822793271F910F910C94F2
:1024C0001D120C9418120E9461126093B001709357
:1024D000B1018093B2019093B3010C94220E60E09D
:1024E00070E0CB010C9463120F931F9341E050E016
:1024F00060E070E08A019B0104C0000F111F221FE1
:10250000331F8A95D2F7C901B8011F910F910C941E
:1025100063120F931F9341E050E060E070E004C04D
:10252000440F551F661F771F8A95D2F78091B0011F
:102530009091B101A091B201B091B3018A019B01C8
:10254000082B192B2A2B3B2BC901B8011F910F9186
:102550000C9463120F931F9341E050E060E070E031
:1025600004C0440F551F661F771F8A95D2F7409508
:102570005095609570958091B0019091B101A091B6
:10258000B201B091B3018A019B01082319232A23C8
:102590003B23C901B8011F910F910C9463120F9353
:1025A0001F9341E050E060E070E004C0440F551F0D
:1025B000661F771F8A95D2F78091B0019091B10183
:1025C000A091B201B091B3018A019B01082719279C
:1025D0002A273B27C901B8011F910F910C94631260
:1025E0000F931F930091B0011091B1012091B2019E
:1025F0003091B301602B712B822B932B1F910F9184
:102600000C9463120F931F930091B0011091B101CC
:102610002091B2013091B30160237123822393236F
:102620001F910F910C9463120F931F930091B001AF
:102630001091B1012091B2013091B301602771274F
:10264000822793271F910F910C946312089527E01E
:10265000929F800D1124E82FE695E695E695877008
:1026600051E001C0550F8A95EAF785E0E89FF00137
:102670001124ED57FE4F20E030E070E04081CB01A7
:10268000022E02C0969587950A94E2F78170819593
:1026900084278523842781932F5F3F4F2530310581
:1026A00069F7089527E0929F800D1124682F6695A1
:1026B00066956695982F977085E0689FB001112404
:1026C00040E050E080E0FB01E40FF51FED57FE4FC6
:1026D000208130E0092E02C0369527950A94E2F752
:1026E00021703327042E01C0220F0A94EAF7822BAF
:1026F0004F5F5F4F4530510531F70895BF92CF923C
:10270000DF92EF92FF920F931F93CF93DF938C0191
:10271000C090B001D090B101E090B201F090B3014F
:102720008091B4019091B501A091B601B091B7012B
:10273000C82AD92AEA2AFB2ACFE1D0E0D701C6016C
:102740000C2E04C0B695A795979587950A94D2F755
:1027500080FD04C0219790F7B12C07C0BC2EB801B2
:102760008C2F0E947B020197A9F38B2DDF91CF91D3
:102770001F910F91FF90EF90DF90CF90BF90089541
:10278000CF93DF93EC010E947E13BE010E947B0277
:10279000DF91CF9108951F93CF93DF93EB01909139
:1027A0004A01992321F0CB010E94C01313C0882352
:1027B00049F0CB010E947E13182F682FCE010E9492
:1027C000271304C0CB010E945213182FBE01812F82
:1027D0000E947B02DF91CF911F9108958091B801F3
:1027E00085958595859508958091B80187700895A0
:1027F0009091B801977081E009F480E0089580918C
:10280000C40108959091C401892B8093C401089557
:1028100080959091C40189238093C40108951092FA
:10282000C40108959091C301892B8093C301089539
:1028300080959091C30189238093C30108951092DC
:10284000C30108959091C201892B8093C20108951C
:1028500080959091C20189238093C20108951092BE
:10286000C20108958091B901089508950C9435141A
:102870000C9436149091B901981721F08093B90106
:102880000C94381408958091B901882329F010928E
:10289000B90180E00C9438140895E0910901F09199
:1028A0000A018091C4018083E0910901F0910A013D
:1028B00090818091C301892B8083E0910901F0917F
:1028C0000A0190818091C201892B80838091B90196
:1028D000882381F0E0910901F0910A019081892B10
:1028E00080838091090190910A010E9457158111FE
:1028F0000E9443148091090190910A010C94BA0935
:102900000C94351498E0899F90011124262B209374
:10291000B8010E9489128091B801859585958595A9
:102920000C9480141092B80180E00C9480142091D3
:10293000B801809582238093B801982F977079F41D
:1029400030E0482F082E000C550B2417350739F0BE
:102950008595859585950E94AA120C9492140895E8
:1029600080E090E00E94F91C21E08C3E9E4F09F02F
:1029700020E0822F089582E090E00C94F11C83E027
:1029800090E00C94F11CCF9384E090E00E94F11C45
:10299000C82F81E290E00E94F11C2C2F30E0A901A9
:1029A000582BCA01CF910895CF93C92F682F84E087
:1029B00090E00E94FF1C6C2F81E290E0CF910C947C
:1029C000FF1CAB01BC018FE090E00C94111DAB012A
:1029D000BC0183E190E00C94111D60E070E0CB013C
:1029E0000C94E71460E070E0CB010E94E1140C94B9
:1029F000ED146CEE7EEF80E090E00E941D1D60E023
:102A000082E090E00E94FF1C60E083E090E00E9482
:102A1000FF1C1092B4011092B5011092B6011092F1
:102A2000B70160E084E090E00E94FF1C60E081E27A
:102A300090E00E94FF1C60E085E090E00E94FF1C97
:102A400060E086E090E00E94FF1C6FEF87E090E07E
:102A50000E94FF1C40E050E0BA0188E090E00E9434
:102A6000111D60E08DE090E00E94FF1C40E050E00E
:102A7000BA0188E190E00E94111D60E087E190E0DA
:102A80000E94FF1C40E050E0BA018CE190E00E94FF
:102A9000111D60E080E290E00E94FF1C0C94F21493
:102AA0000C94F914682F8EE090E00C94FF1CFC014C
:102AB000329697E080E0915029F021912223D9F3BA
:102AC0008F5FF9CF0895662349F0FC01329608968E
:102AD0002191621729F0E817F907D1F780E00895EE
:102AE00081E008959C01FC0132969FEF80E04191C6
:102AF000461789F09F3F19F4411101C0982F8F5F4D
:102B00008630A9F79F3F39F0F901E90FF11D97FDD4
:102B1000FA956283089508959C012A5F3F4FFC0156
:102B20004281461301C01282019682179307B9F7BA
:102B300008950C9472150C948C15029626E0FC01F5
:102B400011922A95E9F7089508950C94A4150C9410
:102B5000A415CF930E94A7150E94F4040E94A51506
:102B6000C0E08C2F0E944E04811104C0CF5FCA3098
:102B7000C1F701C081E0CF9108950C94A4150C9485
:102B8000BD150E94BF158091F101843049F110926A
:102B9000C60120E488E190E00FB6F894A8958093F0
:102BA00060000FBE2093600080E00E9406020E9439
:102BB000BF1583B7817F846083BF83B7816083BF84
:102BC0007894889583B78E7F83BF0FB6F894A895C5
:102BD00080916000886180936000109260000FBE59
:102BE00008950C94A4150E94300E0E94AE090E9414
:102BF00006020C94F1151F920F920FB60F9211243A
:102C00008F939F93AF93BF938091C601811113C09F
:102C10008091E7019091E801A091E901B091EA016A
:102C20004196A11DB11D8093E7019093E801A09307
:102C3000E901B093EA01BF91AF919F918F910F90FD
:102C40000FBE0F901F90189582E084BD93E095BD54
:102C50009AEF97BD80936E0008952FB7F8948091F6
:102C6000E7019091E801A091E901B091EA012FBF3D
:102C700008959C014FB7F8948091E7019091E80185
:102C8000A091E901B091EA014FBF821B930B089517
:102C900078941F920F920FB60F9211248F939F93E7
:102CA000AF93BF938091E7019091E801A091E90172
:102CB000B091EA010196A11DB11D8093E7019093A7
:102CC000E801A093E901B093EA01BF91AF919F9110
:102CD0008F910F900FBE0F901F90189587E797E781
:102CE00090930108809300089AE088E10FB6F89469
:102CF000A895809360000FBE90936000FFCF0E9464
:102D0000B014811102C00E9450150E94BB14809320
:102D1000C5010E94C3149093EC018093EB010E94C3
:102D2000BF14682F70E080E090E00E94291260914B
:102D3000B0017091B1018091B2019091B3010C94F6
:102D400061128091CF01089508950895CF93DF9384
:102D500021E02093E9002FEF3091E800215035FD6C
:102D600006C035ED3A95F1F700002111F5CF20911D
:102D7000E80025FF14C0EC0140E050E068E070E09E
:102D80000E944D188091E8008E778093E80088E0DB
:102D9000FE01A7ECB1E001900D928A95E1F7DF9179
:102DA000CF91089508958091F001811109C00E948A
:102DB000DE190E943B1A8091E20084608093E20059
:102DC00008951092F0010895089508950C94F31554
:102DD00042E061EC81E00C9457198091F30183305B
:102DE00009F460C030F4813071F0823009F499C088
:102DF00008958A3009F485C08B3009F46BC089309E
:102E000009F0A7C020C08091F201813A09F0A1C069
:102E10008091E800877F8093E8008091F60190918F
:102E2000F701892B21F468E087EC91E003C060E0B2
:102E300080E090E070E00E9498188091E8008B7725
:102E40008093E80008958091F201813209F081C0F9
:102E50008091F6019091F701892B09F07AC0809159
:102E6000E800877F8093E8008091E80082FD05C03C
:102E70008091F1018111F8CF6CC02091F300809115
:102E8000F20090E0922B029729F48091F1008B7F61
:102E9000813021F48091F1008093CF018091E8008E
:102EA0008B7753C08091F201813A09F052C0809132
:102EB000F6019091F701892B09F04BC08091E80051
:102EC000877F8093E8008091E80080FFFCCF8091AD
:102ED000150136C08091F2018132D9F58091F60159
:102EE0009091F701892BA9F58091E800877F809365
:102EF000E8000E948C198091F401809315010C94D4
:102F0000300E8091F201813221F58091E800877FB7
:102F10008093E8000E948C198091F5018093D00184
:102F200008958091F201813AA1F48091E800877FB1
:102F30008093E8008091E80080FFFCCF8091D00171
:102F40008093F1008091E8008E778093E8000C94E4
:102F50008C19089584B7877F84BF0FB6F894A8951D
:102F600080916000886180936000109260000FBEC5
:102F700090E080E80FB6F894809361009093610030
:102F80000FBE0E94010A0E94DE190E943B1A809126
:102F9000E20084608093E20078940E94D01C0E943A
:102FA000090A8BE091E00E94A9098091F101853026
:102FB00069F40E94C1158091EF018823B1F30E944A
:102FC000A915882391F30E943718EFCF0E94110AA8
:102FD000ECCF0C94EB17292F332723303105C1F0A8
:102FE00058F42130310579F022303105C1F582E203
:102FF00090E024E432E037C02132310511F1223271
:10300000310531F12CC082E190E026E632E02BC0A0
:1030100099278130910561F040F08230910559F097
:103020000397E9F4E4E1F2E008C0E0E4F2E005C06F
:10303000E2E3F2E002C0EAE1F2E0849190E09F0175
:1030400012C0672B61F489E090E026E532E00BC006
:10305000672B29F480E490E028E732E004C080E0A8
:1030600090E020E030E0FA0131832083089580E190
:1030700089BD82E189BD09B400FEFDCF8091D800F1
:103080008F7D8093D8008091E00082608093E00083
:103090008091E00081FDFCCF0895CF92DF92EF9206
:1030A000FF920F931F93CF93DF93EC018B017A0173
:1030B0000E94AB19811133C0E114F10439F0F7011A
:1030C00080819181081B190BC80FD91FC12CD12CED
:1030D0000115110519F18091E80085FD16C0809158
:1030E000E8008E778093E800E114F10449F0F701DD
:1030F00080819181C80ED91ED182C08285E00FC027
:103100000E94AB19882321F30AC089918093F100B2
:1031100001501109FFEFCF1ADF0ADACF80E0DF910B
:10312000CF911F910F91FF90EF90DF90CF90089576
:103130002091F8013091F9012617370748F0611501
:10314000710539F42091E8002E772093E80001C042
:10315000B901FC0120E06115710579F18091F1015F
:103160008823F1F18530F1F18091E80083FD3CC0C6
:103170008091E80082FD2EC08091E80080FFEBCFB7
:103180002091F3008091F20090E0922B611571057F
:1031900051F08830910538F421912093F10061506D
:1031A00071090196F3CF21E0089709F020E08091A2
:1031B000E8008E778093E800CECF2111CFCF0AC0F0
:1031C0008091F101882361F0853061F08091E80001
:1031D00083FD0AC08091E80082FFF2CF80E008956D
:1031E00082E0089583E0089581E008952091F80138
:1031F0003091F9012617370748F06115710539F448
:103200002091E8002E772093E80001C0B901FC016D
:1032100020E06115710591F18091F101882309F495
:1032200040C0853009F43FC08091E80083FD3DC077
:103230008091E80082FD2FC08091E80080FFE9CFF7
:103240002091F3008091F20090E0922B61157105BE
:1032500059F08830910540F424912093F100319683
:10326000615071090196F2CF21E0089709F020E042
:103270008091E8008E778093E800CBCF2111CCCFEE
:103280000AC08091F101882361F0853061F080915E
:10329000E80083FD0AC08091E80082FFF2CF80E061
:1032A000089582E0089583E0089581E00895982FBD
:1032B000973068F59093E900981739F07091EC0019
:1032C0002091ED005091F00003C0242F762F50E0A4
:1032D00021FD02C09F5FECCF3091EB003E7F309329
:1032E000EB003091ED003D7F3093ED003091EB002D
:1032F00031603093EB007093EC002093ED0050931D
:10330000F0002091EE0027FDE5CF80E008958F705A
:103310008093E90081E008958091F20187FF11C058
:103320008091E80082FD05C08091F1018111F8CF04
:1033300011C08091E8008B770BC08091F101882348
:1033400049F08091E80080FFF8CF8091E8008E7707
:103350008093E80008952091E4003091E50095E61F
:103360004091EC00842F817040FF23C08091E800E1
:1033700080FD1DC08091F101882399F0853099F07E
:103380008091EB0085FD11C04091E4005091E50073
:103390002417350729F3915011F09A01E1CF84E009
:1033A000089582E0089583E0089581E0089580E023
:1033B00008954091E80042FFDDCF08950E944C1A25
:1033C0000E94541AE0EEF0E0808181608083E8ED95
:1033D000F0E080818F77808319BCA7EDB0E08C91FD
:1033E0008E7F8C9380818F7E80831092F001089570
:1033F0000F931F93CF93DF930E944C1A0E94541A8D
:10340000C8EDD0E088818F77888388818068888341
:1034100088818F7D888319BC1092F1011092ED0193
:103420001092EF011092EE0100EE10E0F8018081A1
:103430008B7F808388818160888342E060E080E0C8
:103440000E945719E1EEF0E080818E7F8083E2EEEA
:10345000F0E0808181608083808188608083F801D2
:1034600080818E7F8083888180618883DF91CF9186
:103470001F910F910895E8EDF0E080818F7E8083A9
:10348000E7EDF0E080818160808384E082BF81E0AD
:103490008093F0010C94F819E8EDF0E080818E7FC4
:1034A00080831092E20008951092DA001092E100F9
:1034B00008951F920F920FB60F9211242F933F93EE
:1034C0004F935F936F937F938F939F93AF93BF932C
:1034D000EF93FF938091E10082FF0BC08091E200A7
:1034E00082FF07C08091E1008B7F8093E1000E9402
:1034F000CF1C8091DA0080FF1FC08091D80080FF30
:103500001BC08091DA008E7F8093DA008091D90011
:1035100080FF0DC080E189BD82E189BD09B400FE54
:10352000FDCF81E08093F1010E94D31605C019BC44
:103530001092F1010E94E1168091E10080FF19C014
:103540008091E20080FF15C08091E2008E7F809321
:10355000E2008091E20080618093E2008091D800D7
:1035600080628093D80019BC85E08093F1010E94AD
:10357000E5168091E10084FF30C08091E20084FF75
:103580002CC080E189BD82E189BD09B400FEFDCF78
:103590008091D8008F7D8093D8008091E1008F7E4C
:1035A0008093E1008091E2008F7E8093E200809121
:1035B000E20081608093E2008091ED01882311F0A8
:1035C00084E007C08091E30087FD02C081E001C074
:1035D00083E08093F1010E94E6168091E10083FF71
:1035E00029C08091E20083FF25C08091E100877FA0
:1035F0008093E10082E08093F1011092ED018091CF
:10360000E1008E7F8093E1008091E2008E7F8093C5
:10361000E2008091E20080618093E20042E060E09D
:1036200080E00E9457198091F00088608093F0003C
:103630000E94E416FF91EF91BF91AF919F918F91FE
:103640007F916F915F914F913F912F910F900FBE9E
:103650000F901F9018951F920F920FB60F92112482
:103660002F933F934F935F936F937F938F939F938A
:10367000AF93BF93CF93DF93EF93FF93C091E90094
:10368000CF708091EC00D82FD17080FDD0E81092DF
:10369000E9008091F000877F8093F00078940E9489
:1036A0006F1B1092E9008091F00088608093F00019
:1036B000CD2BCF70C093E900FF91EF91DF91CF91B7
:1036C000BF91AF919F918F917F916F915F914F913A
:1036D0003F912F910F900FBE0F901F9018951F9341
:1036E000CF93DF93CDB7DEB7AA970FB6F894DEBFBE
:1036F0000FBECDBFE2EFF1E08091F100819321E0B8
:10370000EA3FF207C9F70E94ED168091E80083FFB7
:103710002EC18091F2019091F301492F50E04A307F
:10372000510508F024C1FA01EC58FF4F0C94EB1C32
:10373000803821F0823809F01AC108C08091EE016A
:103740009091EF01992389F082600FC08091F6017A
:103750008F70873008F00BC18093E9008091EB00F7
:1037600085FB882780F91092E9009091E800977F07
:103770009093E8008093F1001092F100D1C0282FBF
:103780002D7F09F0F4C0882319F0823061F0EFC07A
:103790008091F401813009F0EAC0933009F080E0B3
:1037A0008093EF012EC08091F40181112AC0809195
:1037B000F6018F702FEF280F263008F0D8C08093C5
:1037C000E9002091EB0020FF1CC0933021F4809190
:1037D000EB00806214C09091EB0090619093EB003D
:1037E00021E030E0A90102C0440F551F8A95E2F79D
:1037F0004093EA001092EA008091EB008860809389
:10380000EB001092E9008091E800877F8093E80048
:103810000E948C19ACC08111AAC01091F4011F77CD
:103820008091E3008078812B8093E3008091E80011
:10383000877F8093E8000E948C198091E80080FFC8
:10384000FCCF8091E30080688093E300111102C0F7
:1038500082E001C083E08093F10189C0805882300A
:1038600008F085C08091F4019091F5018C3D53E002
:10387000950779F583E08A838AE289834FB7F894C4
:10388000DE01139620E03EE051E2E32FF0E050939A
:103890005700E49120FF03C0E295EF703F5FEF70A7
:1038A0008E2F90E0EA3010F0C79601C0C0968D933D
:1038B0009D932F5F243149F74FBF8091E800877FA8
:1038C0008093E8006AE270E0CE0101960E949818A9
:1038D00016C06091F6017091F701AE014F5F5F4F26
:1038E0000E94E917BC01892B09F441C09091E800BE
:1038F000977F9093E80089819A810E94F6188091C1
:10390000E8008B778093E80032C0803881F58091A1
:10391000E800877F8093E8008091ED018093F100BB
:103920008091E8008E7772CF811121C08091F401DF
:103930009091F50199270297D4F48091E800877F50
:103940008093E8008091F4018093ED010E948C192E
:103950008091ED01811106C08091E30087FD02C0D6
:1039600081E001C084E08093F1010E94E81680911B
:10397000E80083FF0AC08091E800877F8093E80019
:103980008091EB0080628093EB00AA960FB6F894CA
:10399000DEBF0FBECDBFDF91CF911F910895089577
:1039A000CF938091F1018823A1F0C091E900CF70FD
:1039B0009091EC00892F817090FD80E8C82B1092C7
:1039C000E9008091E80083FD0E946F1BCF70C093D7
:1039D000E900CF910895EE0FFF1F0590F491E02DBF
:1039E0000994F999FECF92BD81BDF89A992780B5C7
:1039F0000895A8E1B0E042E050E00C94251D262F88
:103A0000F999FECF92BD81BDF89A019700B40216D4
:103A100039F01FBA20BD0FB6F894FA9AF99A0FBE82
:103A200008950396272F0E94001D0E94FF1C252F3A
:103A30000E94001D242F0C94001D0196272F0E9428
:103A4000001D0C94FF1CDC01CB01FC01F999FECF99
:103A500006C0F2BDE1BDF89A319600B40D92415016
:0A3A60005040B8F70895F894FFCF26
:103A6A00012D01002E01052E01BA01A116A616A4E8
:103A7A0016D216A51601F5F6F73133323694669743
:083A8A00C6340000000000003A
:00000001FF
